:020000040000FA
:1000000058020020AD000000590900004909000015
:10001000FFFFFFFFFFFFFFFFFFFFFFFFFFFFFFFFF0
:10002000FFFFFFFFFFFFFFFFFFFFFFFFB109000022
:10003000FFFFFFFFFFFFFFFF7D090000410A0000F7
:100040002101000021010000210100002101000028
:10005000210100002101000021010000FFFFFFFF3E
:10006000C9030000FFFFFFFF21010000FFFFFFFFAA
:1000700021010000FFFFFFFFFFFFFFFF2101000044
:1000800021010000210100002101000021010000E8
:1000900021010000210100002101000021010000D8
:1000A000FFFFFFFF21010000210100001D488047E4
:1000B0001D4880471D4800471D480169002908D197
:1000C0004169002905D18169002902D1C16900294E
:1000D00009D01848C1680901090D00290ED0052969
:1000E0000CD006290AD0BFF34F8F13481349016083
:1000F00013491248C860BFF34F8FFEE70E480168EE
:100100000E48884200D070470E480F4901600A48E7
:100110000E4901607047FEE7FEE7FEE7FEE7FEE7F7
:10012000FEE70000B9000000510A00005101000084
:100130000003084080010840000000200400FA0588
:1001400000ED00E000810840010000000000000018
:100150000348854600F01CF800480047190D0000D0
:100160005802002030B50B46014600202022012411
:1001700009E00D46D5409D4205D31D469540491BDB
:100180002546954040191546521E002DF1DC30BD24
:10019000064C0125064E05E0E36807CC2B430C3CDA
:1001A00098471034B442F7D3FFF7D6FF8C0D000008
:1001B000AC0D00008030C1607047802200290168CA
:1001C00001D0114300E091430160704770B50121F7
:1001D000890300208A02012300F0F0FA0222802124
:1001E000012000F069FA0222D4012146012000F02A
:1001F00063FA02220121002000F05EFA0222114679
:10020000002000F059FA02220421002000F054FAE4
:1002100002220821002000F04FFA022210210020C3
:1002200000F04AFA02222021002000F045FA0222C2
:100230004021002000F040FA02228021002000F03E
:100240003BFA0621102000F0CDFA0F4D00230522C5
:100250001946284600F0C5F800F020F82421284669
:1002600000F0D3F801220421284600F0B1F8012261
:100270001146284600F0ACF804490C6001212846DC
:10028000FFF79BFF70BD00000000014000E100E0AF
:1002900080304068084000D0012070470748064978
:1002A0004160042181600168054A114001600168D4
:1002B000044A11430160704700010203000001403D
:1002C000FFF8F8FF0004FFFF0748064941600921D5
:1002D00081600168054A114001600168044A1143C8
:1002E000016070470506070800000140FFF8F8FFAD
:1002F0000004FFFF70B52A4C01212046FFF7C8FF1C
:10030000002806D001212046FFF754FF012000F00D
:100310000BFB04212046FFF7BBFF002823D004215C
:100320002046FFF747FF1F4805681D4A02231E4964
:100330004032012D18D001250560256B0D62656BDB
:100340004D62A56B8D62E46BCC6214680C635468DB
:100350004C6394688C63D268CA634360FFF79EFF66
:10036000002000F0E1FA70BD0360206B0860606B54
:100370004860A06B8860E06BC860106808615068D6
:10038000486190688861D068C861FFF79DFF0121CE
:10039000204600F033F80121204600F038F870BD07
:1003A00000000140000000201800002010B50449A2
:1003B000002048600121034800F029F810BD00002A
:1003C000000000200000014010B5FFF793FF10BDB2
:1003D0008030002A026801D00A4300E08A430260AC
:1003E00070475B1E12021B04FF3A013A13430B4392
:1003F0000168802211400B4303607047CA06D20E89
:100400000267490949014167704701627047002945
:10041000416F02D00122114301E0490849004167C0
:100420007047000070B5074C0025A068042802D36F
:10043000A560FFF7BBFF6068022802D1656000F08D
:1004400003F870BD0000002010B5424C2088000564
:10045000000D2060A0880005000D60602089000567
:10046000000DA060A0890005000DE060208A000555
:10047000000D2061A08A0005000D6061208B000541
:10048000000DA061A08B0005000DE061208C00052F
:10049000000D2062A08C0005000D6062208D00051B
:1004A000000DA062A08D0005000DE062208E000509
:1004B000000D2063A08E0005000D6063208F0005F5
:1004C000000DA063A08F0005000DE06322A000F0E6
:1004D00057FB25A0216800F053FB28A0616800F0BD
:1004E0004FFB2BA0A16800F04BFB2EA0E16800F0B1
:1004F00047FB31A0216900F043FB34A0616900F0A3
:100500003FFB37A0A16900F03BFB3AA0E16900F096
:1005100037FB3DA0216A00F033FB40A0616A00F088
:100520002FFB43A0A16A00F02BFB46A0E16A00F07C
:1005300027FB49A0216B00F023FB4CA0616B00F06E
:100540001FFB4FA0A16B00F01BFB52A0E16B00F062
:1005500017FB10BD180000200D0A414443205265CE
:1005600073756C740D0A000041444320446174614A
:1005700030203D2025640D0A000000004144432046
:100580004461746131203D2025640D0A00000000A3
:10059000414443204461746132203D2025640D0AAA
:1005A00000000000414443204461746133203D2039
:1005B00025640D0A00000000414443204461746139
:1005C00034203D2025640D0A0000000041444320F2
:1005D0004461746135203D2025640D0A000000004F
:1005E000414443204461746136203D2025640D0A56
:1005F00000000000414443204461746137203D20E5
:1006000025640D0A000000004144432044617461E8
:1006100038203D2025640D0A00000000414443209D
:100620004461746139203D2025640D0A00000000FA
:1006300041444320446174613130203D2025640DE4
:100640000A00000041444320446174613131203D7F
:100650002025640D0A000000414443204461746178
:100660003132203D2025640D0A0000004144432022
:10067000446174613133203D2025640D0A0000007F
:1006800041444320446174613134203D2025640D90
:100690000A00000041444320446174613135203D2B
:1006A0002025640D0A00000010B501210148FFF764
:1006B000A5FE10BD00000140F0B596460A4613495C
:1006C000C000461800230025FF2098402C46104209
:1006D00016D00020012199408C461146C140674642
:1006E000394206D087000F21B9400D437146B94009
:1006F0000C43401C0828F0D33068A84320433060E6
:100700000833361D082BDEDDF0BD0000202002403E
:1007100010B500200F2109020123024600F04EF817
:1007200010BD000010B5164A0446506B154940072D
:10073000400F022807D0032805D0062805D0072837
:1007400006D0002006E0216005E00120C00301E0A2
:100750007D2000022060116A2068052901D340092C
:1007600000E0C8406060916A4903490F072902D040
:10077000C840A06010BD0321FFF7F4FCF9E70000BA
:1007800000800840002D31013EB541090A4A890028
:100790008A1800212E2800D10221C006C00E12683E
:1007A000032383401A40C24054186846FFF7BAFF3B
:1007B0000198E0403EBD000038800840F0B5084F89
:1007C0007C6AFD6A3E6B84438D439643002B02D0C6
:1007D00004430D4316437C62FD623E63F0BD00009E
:1007E0000080084010B5044CA26A072383409A4356
:1007F00081400A43A26210BD00800840002A0268BE
:1008000001D00A4300E08A4302607047F0B500243B
:1008100025462346CE0706D05E001746B7403C4328
:100820000327B7403D4349085B1C102BF2D34169B5
:10083000A9434161416921434161F0BD002A08D0CB
:10084000012A09D082688A438260C2688A43C260F2
:10085000704782680A43F7E7C2680A43C260826849
:100860008A4382607047000070B50D46114900014F
:10087000441800200921C90201230246FFF79EFF08
:10088000227AE1882079FFF717FFA27BA189A07A5D
:10089000FFF712FF2946206800F014F90122002119
:1008A000206800F045F901221146206800F040F967
:1008B00070BD00007C0D0000F8B5054613481349D3
:1008C000465D680010310C5A08460D38475DB0008F
:1008D0000C3108580090304600F034F93A46214671
:1008E0003046FFF7E9FE284600F012F821460222C2
:1008F0000098FFF7A3FF214601220098FFF786FF2B
:10090000214601220098FFF779FFF8BD480D00004D
:10091000044A4100515A103A105C80001C321058B1
:1009200041627047580D00000649095C8A0005497C
:100930001C3189580A6A034B40001033185A424050
:100940000A627047480D0000024801680029FCD087
:10095000704700000C000020704710B500210846C9
:1009600000F002F810BD0000024A114001430248A5
:100970008160704780FFFF1F00ED00E070470EB5FB
:10098000E12040020090FF2001306946888000206D
:10099000C88008814881FFF767FF0EBD0349C2B2D6
:1009A0000A600A69D205FCD57047000000100440B7
:1009B00070470000042204490428086902D09043CB
:1009C000086170471043FBE700E000E0074900289A
:1009D00006D00128086906D0400840000861704729
:1009E00000208861704701221043F7E700E000E033
:1009F000044902220028086901D0104300E0904316
:100A00000861704700E000E001494861704700005C
:100A100000E000E010B50420C043FFF7CBFF07481B
:100A200000680009FFF7F0FF0120FFF7E1FF002059
:100A3000FFF7CCFF0120FFF7C9FF10BD1000002019
:100A400002480168491C016070470000080000204E
:100A50001A491020C8601A48016B402211430163F3
:100A600041685301194341608168C908C907FBD037
:100A70004168C908C900C91C4160416B4907490F59
:100A80000329FAD101210162416801239B02194324
:100A9000416081688908C907FBD0016B91430163FC
:100AA000002101624168C908C900891C4160416B8D
:100AB0004907490F0229FAD1704700000081084018
:100AC0000080084070B504460D46C8888988626871
:100AD00008432989134B1A40114308436989084385
:100AE000606001208007844206D11820FFF74CFE89
:100AF0002968FFF737FB60620B48844206D11C204F
:100B0000FFF742FE2968FFF72DFB60620748844229
:100B100006D11E20FFF738FE2968FFF723FB60622D
:100B200070BD0000FCE0FFFF00100040001004401A
:100B300010238B404168002A01D0194300E09943FB
:100B4000416070471CB50022009201216B46019262
:100B5000195418784904C007C00B884359780123F9
:100B6000C907890B084301218904884369468978AC
:100B7000C907490B084301218903FFF71FFE1CBD6C
:100B80000FB410B503A9044B044A029800F018F8FA
:100B900010BC08BC04B01847110D00001400002060
:100BA00002E008C8121F08C1002AFAD17047704736
:100BB000002001E001C1121F002AFBD17047000094
:100BC000FFB58DB00446002506E025280AD0109A0E
:100BD0000F999047641C6D1C20780028F5D1284699
:100BE00011B0F0BD00270121484A009700E00743FB
:100BF000641C23780846203B98401042F7D12078A7
:100C00002E2817D1042007436078641C2A280CD1B1
:100C10000E98641C02C800910E900BE000990A2205
:100C2000514330394018641C009020780146303917
:100C30000929F3D920780028D1D0642808D0692860
:100C400006D075281ED0109A0F9990476D1C5BE056
:100C50000A200E99019001C90E91002802DA404243
:100C60002D2102E0390504D52B216A46117201219C
:100C700003E0F90704D02021F7E70BAE0B910DE05C
:100C80000021FAE70A200E99019001C90E91F7E7B9
:100C90000199FFF767FA3031761E31700028F7D1DD
:100CA00003A8801B20300190780701D5009801E04F
:100CB000012000900199884201DD401A00E00020E7
:100CC0000027009006E002A8109AC05D0F99904797
:100CD0006D1C7F1C0B988742F5DB04E0109A3020D6
:100CE0000F9990476D1C0099481E00900029F5DC73
:100CF00005E03078109A761C0F9990476D1C019989
:100D0000481E01900029F4DC641C65E709280100F5
:100D100010B5FFF743FE10BDFFF71FFEFFF7F8FC0D
:100D2000FFF778FEFFF72BFE0020FFF7C5FD01203F
:100D3000FFF7C2FDFFF74AFAFFF721FEFFF7B4FC09
:100D4000FFF770FBFCE70000010101010101010256
:100D5000020101010C0203004000800000010010AC
:100D60000400080000000B4000200B4000400B4036
:100D7000000000000000000000000000001004401F
:100D8000000010000600000020000600AC0D00006E
:100D90000000002018000000A00B0000C40D00009F
:100DA0001800002040020000B00B0000010000000D
:100DB000000000000400000000000000002D3101D0
:040DC000000000002F
:04000005000000AD4A
:00000001FF
