:020000040000FA
:1000000068030020AD0000009117000015150000E6
:10001000FFFFFFFFFFFFFFFFFFFFFFFFFFFFFFFFF0
:10002000FFFFFFFFFFFFFFFFFFFFFFFFF11B0000D0
:10003000FFFFFFFFFFFFFFFF9D190000751D000080
:100040001D0100000D1A00001D0100001D0100002F
:10005000AB100000CB100000ED100000FFFFFFFF11
:10006000490C0000FFFFFFFF1D010000FFFFFFFF25
:1000700071140000FFFFFFFFFFFFFFFF1D010000E5
:100080001D010000C10E00001D0100001D01000047
:100090001D010000251B00001D0100001D010000C6
:1000A000FFFFFFFF1D0100001D0100001C488047ED
:1000B0001C4800471C480169002908D141690029F2
:1000C00005D18169002902D1C169002909D01748E9
:1000D000C1680901090D00290ED005290CD0062997
:1000E0000AD0BFF34F8F12481249016012491148DC
:1000F000C860BFF34F8FFEE70D4801680D48884286
:1001000000D070470D480E49016009480D49016053
:100110007047FEE7FEE7FEE7FEE7FEE7FEE70000CA
:10012000851D0000490100000003084080010840CF
:10013000000000200400FA0500ED00E00081084006
:1001400001000000000000000348854600F04EFC5E
:1001500000480047FD3400006803002030B50B461E
:10016000014600202022012409E00D46D5409D4291
:1001700005D31D469540491B254695404019154617
:10018000521E002DF1DC30BD70B50024254600283C
:1001900001DA01244042002901DA01254942FFF732
:1001A000DDFFAC4200D04042002C00D0494270BD7F
:1001B00003460B439B0703D009E008C9121F08C080
:1001C000042AFAD203E00B780370401C491C521E2B
:1001D000F9D27047F8B502464A40D40F42004B00AE
:1001E00052085B089A4202D20246084611464A006B
:1001F00023D0C30D4A00DDB2120EAD1A202D35DA20
:1002000049020126490AF6058A19002C00D05242FB
:1002100020214F1B1146B9402A411018C20D9A42A5
:1002200021D0002C17D0012D08DCDA05801AD20F5E
:100230008019D207DBB200F041FBF8BDDA05801A65
:10024000012340001B06C01880185A428018CA0FAC
:100250001043490007E04908C2071143DA05801A34
:1002600080194008801800F021FBF8BD61000122D0
:10027000511A001BF7E70122D2075140AAE70122D9
:10028000D2075040A6E7024670B54A40D30FDB07BD
:1002900040002DD04A002AD0010E140E0002120296
:1002A0000919400A520A8418E50104465443000A19
:1002B000120A2E045043A4194219200CC543AA184F
:1002C000120C0125AD03521C521912047F3924046B
:1002D00000D0521C104301D44000491EC2B20C068B
:1002E000C0092018401C4008802A02D003E00020EA
:1002F00070BD40084000002900DA0020184370BD9E
:1003000070B502464A40D50F40004A00ED0740084C
:100310005208002814D0002A12D0C40DD30D410277
:100320000120C0055202490A520AE41A091812189B
:100330007D34914201D3641C00E04900002C01DAB5
:10034000002070BD0023914201D3891A0343400865
:1003500049000028F7D100290AD0914202D1012199
:10036000C90705E0914201D2012101E00121C94301
:10037000E005C018401900F099FA70BDF0B50746C5
:100380000846584087B0C00F049048000E465900F8
:1003900040084908BC1A884105D2384631461E46F5
:1003A00017460B4602465800400810434CD0300D0B
:1003B000039040055900400D490D0590401A0290E8
:1003C000402872DA18030121000B09050843019047
:1003D00004980092002805D00199524200208841DB
:1003E00000920190029840210A1A0199009800F0A9
:1003F00029FA05460C466B4607CB00F044FAC019B3
:100400007141039A0E0D0023D71756401A467A40C1
:10041000164344D0049A002A2DD0029A012A039A46
:1004200015DC1205C01A914101263605001C7141E8
:10043000D20F059ED2070093019202962A462346C8
:1004400000F082FA07B0F0BD38463146FAE71605EB
:10045000224A0F46B218C01AB74101210905001CF3
:100460004F4100187F41114618187941E20F10439F
:100470006D19644113E0E2076D0815436408C20773
:100480001443039A01261205C01A91413605001C37
:100490007141CE07400830434908C01851412A46EF
:1004A000234600F044FACDE7FFE70498012240001C
:1004B000C117121A00238B4104983146C417381A09
:1004C000A141EEE730B40124E407634030BC55E7B6
:1004D00030B40124E407614030BC4FE70000E0FF86
:1004E000F0B51FB488B00B990998002448400999C9
:1004F000C00F490049080991C0070B9900904900B5
:1005000049080B9109990898A64608431CD00B99F5
:100510000A98084318D0099801244000420D480069
:10052000410D099824050003000B204309900B9806
:100530000003000B20430B9050181C494018002268
:1005400001901446104605E0002001460DB0F0BDB4
:10055000032801DA034600E003239C46C11A0AAED1
:100560000AE05F0008ADED5B4F00F75B7D430027BD
:10057000AA187C41491C5B1E6145F2DD410004ABB9
:100580005A522104120C0A43240C401C0828DFDBB9
:10059000019802900099704601910090059B049A81
:1005A0000799069800F0D0F9D0E700000DFCFFFF96
:1005B000F0B50C465C4085B0E40FE40703944C00B2
:1005C00000266408590094464908024602962243D0
:1005D00021D062460A431ED06200570D4A000E0326
:1005E0002303550D012402462C492405781B1B0BBF
:1005F000360B401823432643614600901C46501A90
:10060000B44103D30098401C009002E09218009877
:100610005B41002803DA0020014605B0F0BD002050
:10062000012109050746864611E064461D46141B54
:10063000B54106D36546521BB341744607430C438C
:10064000A646CD0740084908284392185B41054655
:100650000D43EAD11046184313D060461946504066
:100660007140084306D06046101AB34106D20122F9
:10067000002306E000220123DB0702E00122D2432F
:100680005310009874460105381C6141029C039D7B
:100690000019694100F04BF9BFE70000FD030000BD
:1006A000C217C10F504010B54018CA079623002149
:1006B00000F004F910BD10B500229623114600F099
:1006C000FDF810BD0EB5C217C10F5040CA07401843
:1006D0000021054B0293019200910A460B4600F05F
:1006E00033F903B000BD0000330400000EB5054926
:1006F0000291002100910A460B46019100F024F975
:1007000003B000BD33040000410040020122400A52
:10071000D205090E80187F2901DA0020704796293A
:1007200003DC9622511AC8407047963988407047BA
:100730004A0009030123090B1B051943094B10B596
:10074000520D9A4201DA002010BD064B34339A4212
:1007500003DC9A1A00F086F810BD0349511888404E
:1007600010BD0000FF030000CDFBFFFFC20FD2074A
:10077000400040080BD0C10D0723DB01C91840021F
:100780000905400A1143C208400711437047002081
:100790000146704710B5002904DB0124E4074042FC
:1007A0008C412146002B04DB1C460123DB0752420F
:1007B000A3418B4200D1824210BD000010B5002938
:1007C00004DB0124E40740428C412146002B04DB7A
:1007D0001C460123DB075242A341994200D19042BB
:1007E00010BD0000CB0FDB07490010B549080246D9
:1007F0000A4307D00A0D07240903E401090B121B61
:10080000002A01DC002010BDC900440F0C43C100C8
:10081000E018D205801800F049F810BD0122D20777
:10082000002800DB101A002900DB511A81427047B2
:100830000122D207002800DB101A002900DB511A20
:100840008842704710B5202A04DB0146203A9140C7
:10085000002010BD914020239C1A0346E340194319
:10086000904010BD10B5202A04DB0846203AD04045
:10087000002110BD0B46D340D0402024A21A914045
:100880000843194610BD10B5202A06DBCB170846D1
:10089000203A1041C1170B4306E00B461341D040EC
:1008A0002024A21A91400843194610BD002904DAF9
:1008B000401C490001D140084000704770B400243A
:1008C000050C05D11024000402D1002921D01124E7
:1008D000050E01D100020834050F01D10001241DCD
:1008E000850F01D18000A41C002801DB4000641C9E
:1008F000002908D020252E1B0D46F540A14000D030
:1009000001212943084301061B1B000ADB1D02D5F8
:10091000002070BC7047DB05181880180029F8DA31
:10092000401C4900F5D170BC40084000704710B52C
:10093000002B08DA0024401C614192185B411A43E5
:1009400001D14008400010BDF0B51FB482B005468B
:100950000C0003D0084601F036FB02E001F033FB47
:1009600020300246009021462846FFF76BFF049B8B
:10097000059A04460F4618431143084314D01846FD
:1009800010431BD0009840210A1A18460599FFF71A
:1009900069FF05460E46009A05990498FFF752FF35
:1009A000084305D0012004E02046394607B0F0BDD9
:1009B0000020C11705430E432C43374300990E987E
:1009C0006305401A7905E40A00220C43FD0A0A3047
:1009D00002D500200146E9E70105101969410C9C88
:1009E0000D9D00196941FFF7A2FFDFE7064C0125C5
:1009F000064E05E0E36807CC2B430C3C98471034C7
:100A0000B442F7D3FFF7A4FB34670000546700003B
:100A10008C2211507047002904D0026880231A43A9
:100A2000026003E0026880239A430260704700007E
:100A30003EB50446002000900190029001218903F8
:100A40000198884340180190890202988843401811
:100A500002900123684607C800F0D4FAE007C00FEF
:100A6000002804D002228021012000F0D1F90220C8
:100A70002040002804D00222D101012000F0C8F952
:100A800004202040002804D002220121002000F090
:100A9000BFF908202040002804D00222114600207F
:100AA00000F0B6F910202040002804D002220421D2
:100AB000002000F0ADF920202040002804D00222C0
:100AC0000821002000F0A4F940202040002804D094
:100AD00002221021002000F09BF9802020400028F5
:100AE00004D002222021002000F092F9FF200130E2
:100AF0002040002804D002224021002000F088F984
:100B0000012040022040002804D002228021002041
:100B100000F07EF9012080022040002804D002224B
:100B20001021104600F074F90120C0022040002876
:100B300004D002222021104600F06AF9072110207B
:100B400000F080FA0023032219460C4800F08FF8C9
:100B500000F022F82421094800F099F8012204212C
:100B6000064800F075F8082001218140044A116010
:100B700000BF01210148FFF74EFF3EBD00000140CC
:100B800000E100E0024684239B580B40002B01D07B
:100B9000012000E000207047084809494860002112
:100BA0000748816000680749084005490860084611
:100BB0000068054908430249086070470C0D0A00A7
:100BC00000000140FFF8F8FF0002FFFF10B504210C
:100BD0001A48FFF7D7FF00282FD004211748FFF746
:100BE00017FF1648006B0005000D154908801348D3
:100BF000406B0005000D48801048806B0005000D1B
:100C000088800E48C06B0005000DC8800B48006C42
:100C10000005000D08810948406C0005000D488161
:100C20000648806C0005000D88810448C06C0005F2
:100C3000000DC88101200349087010BD000001406B
:100C4000900000200800002010B5FFF7BFFF10BD86
:100C500010B5002A05D080231B580B438024235055
:100C600004E080231B588B438024235010BD70B5B3
:100C7000032900D100BF5C1E2404551E2D022C4305
:100C80000C430568802635402C43046070BD01622A
:100C900070470000F0B589B004460D460D222021B2
:100CA000022000F0B5F800216846C182464800687D
:100CB000464908602188684681820021017600202B
:100CC0000790FF2101316846018405A9284601F0FB
:100CD0001FF9FF210131284601F09DF807216846E0
:100CE000C180012101720021417201218172002124
:100CF000C172017301214173A0780840002812D00D
:100D0000002069460871888AFFF7D5FC07466168AC
:100D1000FFF7B9FA0646FFF7F7FC6946C88101A953
:100D2000284601F091F8A07802210840002812D04E
:100D3000012069460871888AFFF7BDFC0746A16853
:100D4000FFF7A1FA0646FFF7DFFC6946C88101A953
:100D5000284601F079F8A07804210840002812D034
:100D6000022069460871888AFFF7A5FC0746E168FA
:100D7000FFF789FA0646FFF7C7FC6946C88101A953
:100D8000284601F061F8A07808210840002812D018
:100D9000032069460871888AFFF78DFC07462169A0
:100DA000FFF771FA0646FFF7AFFC6946C88101A953
:100DB000284601F049F8A078002803D001212846F0
:100DC00001F02EF809B0F0BD8C000020800000205A
:100DD00030B50A4600230021072803DD012304461D
:100DE000083CE0B29C00094D6419216885000F247D
:100DF000AC400D46A543294685001446AC4021432E
:100E00009C00024D6419216030BD000000200240AA
:100E1000F7B50B46009DED00154EAA1900200024E1
:100E20000027002120E000240027FF258D401D40E1
:100E3000002D17D000200FE01D46C54001268E4032
:100E40003540002D07D086000F25B5402C43860085
:100E5000029DB5402F43401C0828EDD31568A543DB
:100E60003D431560121D08310829DCDDFEBD000080
:100E70002020024010B51120012181400D4A11604F
:100E800000BF7D21C9000C480068FFF767F90446E0
:100E900021460A4800F04BF80021084800F049F8C4
:100EA0000121064800F037F80121044800F027F836
:100EB00010BD000000E100E08C0000200060074051
:100EC00010B5084800F014F807480088401C06498F
:100ED0000880084600880549884202DB0020024954
:100EE000088010BD0060074064000020102700004B
:100EF0004168490849004160BFF34F8F704700299E
:100F000004D0026804231A43026003E00268042349
:100F10009A4302607047002904D0026801231A43F3
:100F2000026003E002685208520002607047C1602C
:100F3000704781607047000001460448806808409F
:100F4000002801D0012070470020FCE70080084005
:100F500070B504461C48406B4607760F022E06D03B
:100F6000032E07D0062E08D0072E0ED109E0174811
:100F700020600DE0154820600AE00120C0032060D9
:100F800006E07D200002206002E00020206000BF1B
:100F900000BF0D48056A052D02D32068400901E015
:100FA0002068E84060600848806A0721090408401A
:100FB000050C072D04D103216068FFF7CFF801E08D
:100FC0006068E840A06070BD00800840002D3101DD
:100FD000FEB50446601180000949461800252E2CF4
:100FE00000D10225E406E40E0321A1403068084048
:100FF000E04045196846FFF7ABFF0198E840FEBDA9
:10100000388008403FB50E4C606AE16A226B0446A6
:10101000009DAC4320460C46019DAC43214614463E
:10102000029DAC432246002B05D0009C2043019C2E
:101030002143029C2243024C6062E16222633FBD75
:1010400000800840054A926A072383409A430B4672
:1010500083401A43014B9A627047000000800840A9
:1010600010B5037B002B0AD1002A02D001230360B4
:1010700001E00023036041600123037314E0002AB0
:1010800002D003685B1E036003881B045B1844687E
:101090001B1B8360437B002B02D00123837301E081
:1010A000012343730023037310BD10B501F06AFCE4
:1010B000002000F099F8002803D0002000F08AF802
:1010C00002E0012000F086F810BD10B501F05AFCD6
:1010D000022000F089F8002803D0022000F07AF8FE
:1010E00002E0032000F076F810BD000010B501F01A
:1010F00049FC042000F078F8002803D0042000F018
:1011000069F864E0052000F06FF8002803D005209E
:1011100000F060F85BE0062000F066F8002803D0DD
:10112000062000F057F852E0072000F05DF8002894
:1011300003D0072000F04EF849E0082000F054F8F2
:10114000002803D0082000F045F840E0092000F016
:101150004BF8002803D0092000F03CF837E00A20C3
:1011600000F042F8002806D00A2000F033F80120F1
:10117000174908702BE00B2000F036F8002803D048
:101180000B2000F027F822E00C2000F02DF80028BA
:1011900003D00C2000F01EF819E00D2000F024F818
:1011A000002803D00D2000F015F810E00E2000F00C
:1011B0001BF8002803D00E2000F00CF807E00F20E9
:1011C00000F012F8002802D00F2000F003F810BD44
:1011D00010000020014601228A401046014A50605A
:1011E0009060704740400240014605484068012237
:1011F0008A401040002801D0012070470020FCE701
:10120000404002400279D207037A1B071A43C38881
:101210001A43114602689200014BD21811607047C0
:1012200000400240012907D1074A12680123834088
:101230001A43054B1A6006E0034A126801238340F3
:101240009A43014B1A6070474040024000B587B096
:101250000020019002900390002168468174FF21D4
:1012600001310182002006900021684601750820A6
:1012700001906846017241810221017301AA04A90B
:10128000154800F065F80121C90268460182002076
:1012900006900B20019001AA04A90F4800F058F80D
:1012A0000121890268460182002006900A200190EF
:1012B00001AA04A9084800F04BF801214902684638
:1012C0000182002006900920019001AA04A9024889
:1012D00000F03EF807B000BD00000B4010B5074815
:1012E00000F0F6F9054880880549884204D000F0EE
:1012F0002FFE024800F0ECF9012010BDC4000020D0
:10130000A5A50000002A03D003680B43036002E098
:1013100003688B4303607047F0B51746002400252F
:1013200000220CE0CE07F60F002E06D053003E46FA
:101330009E40344303269E4035434910521C102AD8
:10134000F0D34669AE434661466926434661F0BD27
:10135000FEB506460D46144600200090019002900E
:101360002946304600F030F80121C903019888432E
:10137000401801900123684607C8FFF743FE297A09
:101380002078FFF725FD2046FFF73CFF012120686C
:10139000FFF748FF2068002806D0012805D0022862
:1013A00007D003280AD105E000BF042000F0F8F9B7
:1013B00008E000BF052000F0F3F903E0062000F08C
:1013C000EFF900BF00BFFEBD70B505460C46218891
:1013D0000122A068FFF71CFD22792188284600F031
:1013E0001EF8A27821882846FFF78CFFA0780028F5
:1013F00005D121880122284600F007F804E0E278B0
:1014000021882846FFF788FF70BD002A03D0436873
:101410000B43436002E043688B4343607047002AFC
:1014200006D183680B438360C3688B43C3600EE0BF
:10143000012A06D1C3680B43C36083688B43836072
:1014400005E083688B438360C3688B43C360704748
:101450000246D3690B40002B01D0012000E00020A0
:101460007047002A01D0416200E0816270470000AD
:10147000F8B500262448C46B23484030006800902B
:10148000FF20013020402049C96BFF22013211406A
:10149000884205D01C48C46B1B484030006800904F
:1014A000E0431949C8638815204000280AD0012666
:1014B000164800681649884204D014480068401C49
:1014C000124908600220204000281BD001210E484C
:1014D000403800F0B1FC0546002E04D0009885424B
:1014E00001D9012000E000200746A9B23A4607488A
:1014F000FFF7B6FD0548027B01210348403800F0A4
:101500007DFC00BFF8BD000040E00640F400002074
:10151000FFFF000000BF024800680028FBD07047B2
:1015200000000020002904D0026801231A43026051
:1015300003E0026852085200026070470246D06819
:10154000884201D1012070470020FCE7C16070474C
:10155000002904D0026808231A43026003E00268ED
:1015600008239A4302607047016802221143016018
:1015700070470246D0680840002801D0012070471B
:101580000020FCE7FEB504460D46002001900090C7
:1015900000BF00BF01212046FFF7DAFF2068852148
:1015A00088432978084369780843A978084320606C
:1015B000A888A0602748844204D10020FFF708FDD6
:1015C000019006E02448844203D10220FFF700FD89
:1015D00001902068032189030840002806D00121DA
:1015E0008903401A05D0401A09D105E00620009071
:1015F00005E00820009002E00920009000BF00BF35
:101600001423AA685A431146019AD300D018FEF752
:10161000A5FD0099401A297B461A1423AA685A434B
:1016200011460B23019A5A431046FEF797FD009985
:10163000401A297B471A002E01DA002000E03046CC
:101640000646002F01DA002000E0384607462661F2
:101650006761FEBD00800440009004400146886937
:10166000C0B270478161704710B500BF03680224A3
:101670002340002BFAD1002A03D063020B43C3613D
:1016800000E0C16110BD000010B500F073F900BFAB
:101690002020FFF751FC0028FAD0002000F092F93A
:1016A0000121022000F01CFA002000F02FFAA020F7
:1016B00000F026FA012000F073F901200121814099
:1016C000024A116000BF00F089F910BD00E100E09E
:1016D00010B504461022084801687F20800102F0FE
:1016E000DDF90E22044801680448FEF761FD20463A
:1016F00001F0DEFE10BD000088000020C4000020C4
:1017000070B502F023FA01F067FB1E48007801284B
:1017100001D102F0AFF81C48007800282ED1002437
:10172000002518480078022806D1184800780028BB
:101730001DD001F017F91AE012480078112802D1E3
:1017400001F0BCFC13E00F480078212802D100F022
:1017500017FF0CE00B480078312802D102F076FA2E
:1017600005E008480078322801D102F051FA064815
:101770000078002801D102F0BFF900BF0020014924
:10178000087070BD66000020340000207C0000203E
:10179000704710B50021084600F00CF810BD00009D
:1017A000C206D20E01219140014A1160704700002B
:1017B00000E100E0024A0A400243024B9A6070478F
:1017C00080FFFF1F00ED00E070B504460D4629467E
:1017D000B031C8B203F0D0FAF02121400911084617
:1017E000103003F0C9FA2107090F012211430846FE
:1017F00003F0C2FA70BD0000F7B50E46154600278B
:1018000031460098FFF7E0FF002409E06901104A23
:101810008918085D03F0C4FA781CC7B2601CC4B212
:10182000102CF3DB701CC1B20098FFF7CDFF002431
:101830000BE06900491C0901054A8918085D03F09D
:10184000AFFA781CC7B2601CC4B2102CF1DBFEBD2D
:101850007A5D0000F8B506460D4617460020009058
:10186000002438462038C0B200907F2E02DD0026CA
:10187000A81CC5B229463046FFF7A6FF002408E0A1
:101880000099090109190E4A505C03F089FA601C9D
:10189000C4B2082CF4DB681CC1B23046FFF794FFD9
:1018A000002409E00099090109190831044A505C33
:1018B00003F076FA601CC4B2082CF3DBF8BD00001C
:1018C000CA570000F7B584B0074600200390069879
:1018D00001F0EEFA064600242DE0301B401EC1B296
:1018E0000A2001F0B9FF014601900698FEF736FC88
:1018F0000A210290FEF732FC0D46039800280ED113
:10190000701EA0420BDD002D07D1E100C919C8B23D
:1019100020220599FFF79EFF0BE001200390294646
:101920003031CAB2E100C919C8B20599FFF792FF78
:1019300000BF601CC4B2B442CFDB304607B0F0BD7C
:10194000F8B504460F46154600260EE0AA5D394656
:101950002046FFF77FFF20460830C4B2782C02DD16
:101960000024B81CC7B2701CC6B2A85D0028EDD117
:10197000F8BD000001200849486000BF06484068E3
:101980000121090388430028F8D100BF02480068FC
:101990000028FBD17047000000A1064070470000FE
:1019A000002806D00649896810221143044A916034
:1019B00005E00349896810229143014A916070470C
:1019C00000A0064004498968022291434200114365
:1019D000014A91607047000000A00640002806D030
:1019E0000649896801221143044A916005E00349D0
:1019F000896849084900014A9160704700A0064083
:101A00000148C068C0B2704700A0064010B5FFF79B
:101A1000F7FF04460220204000284DD0A02000F00F
:101A20006FF826480088401C244908802448008814
:101A3000401C2349088023480078401C2149087035
:101A40000A2120480078FEF79FFB002902D10120DF
:101A50001D49087014211B480078FEF795FB0029EA
:101A600002D1012019490870642116480078FEF758
:101A70008BFB002902D1012015490870C8211148AB
:101A80000078FEF781FB002905D10120114908707B
:101A900000200C4908700A480088192189018842F1
:101AA0000ADB00BFBFF34F8F0B480C49C860BFF380
:101AB0004F8F00BF00BFFEE710BD000054000020A4
:101AC0005600002058000020590000205A00002035
:101AD0005B0000205C0000200400FA0500ED00E03F
:101AE000002905D0054A12690243044B1A6104E03B
:101AF000024A12698243014B1A61704700A00640F6
:101B0000014948607047000000A006400349896809
:101B1000034A11400143014A9160704700A006400A
:101B2000FFF000007047002904D0026801231A4327
:101B3000026003E00268520852000260704710B56C
:101B400002460020002353691C460C40002C01D0A3
:101B5000012000E0002010BD10B54A69002A05D11F
:101B60000C7EFF230133A3401A4304E00C7E0123C3
:101B70005B0223411A438C680B682343CC682343E0
:101B80000C692343CC692343134343604C6A4B687D
:101B900023430C6A2401234383618B6A5B085B1E29
:101BA000C36010BD002904D0026808231A430260F4
:101BB00003E0026808239A430260704710B50446A8
:101BC0002146084800F012F800BF02210548FFF73F
:101BD000B6FF002803D104480088C828F5DB0020A0
:101BE00010BD000000400040560000200161704719
:101BF00070470000042806D10649096904221143F0
:101C0000044A116105E00349096904229143014A2C
:101C10001161704700E000E0002803D10021094A6B
:101C200091610EE0012806D106490969012211439C
:101C3000044A116105E00349096949084900014A5C
:101C40001161704700E000E0002806D006490969EC
:101C500002221143044A116105E003490969022285
:101C60009143014A1161704700E000E00149486179
:101C70007047000000E000E010B50E22064907485A
:101C80000068FEF795FA0E22044801687F20800163
:101C900003F052F810BD0000C400002088000020AE
:101CA00010B504461022264926480068FEF780FA3F
:101CB0001022244801687F20800103F03DF8A079BC
:101CC000002817D1607800280CD06078401E60761C
:101CD0006178491E0905080C0A2221460E3103F0DD
:101CE0002BF823E0002060760A2221460E3103F013
:101CF00023F81BE0A079012818D1E07800280BD048
:101D0000E078401E6076617E403108010A2221465B
:101D10000E3103F011F809E000206076617E403159
:101D200008010A2221460E3103F006F80922214655
:101D30000E31044800680E30FEF73AFA10BD00007C
:101D4000C40000208800002010B50420C043FFF725
:101D500051FF074909680809FFF788FF0120FFF7CD
:101D600073FF0020FFF758FF0120FFF755FF10BD5C
:101D70008C00002002480068401C01490860704740
:101D80000C00002010201B49C8601B48006B40213C
:101D9000084319490863084640680121C9020843FD
:101DA0001549486000BF144880680007C00F00282C
:101DB000F9D011484068C008C000C01C0E494860F6
:101DC00000BF0D48406B4007400F0328F9D10120A8
:101DD000094908620846006B4021884306490863A8
:101DE0000020086208464068091588430249486097
:101DF00070470000008108400080084070B5446DC5
:101E00004E000125B540AC4323464D001446AC407E
:101E10001C43446570BDCA43C267BFF34F8F704710
:101E2000002904D0026901231A43026103E0026918
:101E3000520852000261704710B502468C001046ED
:101E400090302318186810BDFCB50D78AD0006461B
:101E50004036AF190D78AD005036AD1901950D78AB
:101E6000AD001036AD1900950D786D062A0E274D80
:101E7000A84203D103259540EC4302E0012595409B
:101E8000EC43224DA84200D100BF056D25400565F9
:101E9000436D23401D4DA84206D18D79CE79760041
:101EA000354395402B4302E08D7995402B434365A4
:101EB000164DA84209D1C56E25402B460D7A4E7AA3
:101EC0007600354395402B43C3663D68FF260836B0
:101ED000B5433D603D684E8835433D604E89019D68
:101EE0002E608E89009D2E60084DA84208D10D7984
:101EF0004E79760035439540066D3543056504E01F
:101F0000056D0E79964035430565FCBD00C0024065
:101F10000B88882213504B888422135002680323B5
:101F20001B049A430260026801231B069A43026065
:101F300002688B681A430260044A904202D10B790E
:101F40008C2213508A8982677047000000C00240CB
:101F500010B500201349087048708870C8708871E7
:101F6000C87101200872002048811E2088810E4817
:101F700088800020C043C88107210A48103000F043
:101F8000EFFAFFF779FE092206490E31002002F030
:101F9000D3FE092203490E310120800202F0CCFE5B
:101FA00010BD0000C4000020A5A5000070B50546C6
:101FB0000E46002404E0285DFFF700FE601CC4B25A
:101FC000B442F8DB70BD2021020C01D01021104674
:101FD000020A01D010460839020901D01046091F33
:101FE000820801D01046891E420801D0881E704721
:101FF000081A704702E008C8121F08C1002AFAD167
:1020000070477047002001E001C1121F002AFBD178
:1020100070470000F8B500200090134800780028B1
:102020001FD01248808800900098FEF75FFB04469E
:1020300022460B4600200E49FEF7BAFA0646FEF786
:10204000D1FB0C49086000210A480068FEF7E6FB56
:1020500001D10020F8BD0020034908700548006840
:10206000F8E70020F6E700000800002090000020BC
:102070000000B84038000020F0B58BB004460D4693
:1020800000266004400CFEF71DFB00222F4B079139
:102090000690FEF725FA09910890FEF7A3FB064685
:1020A0000120C0032040002804D029493046FEF713
:1020B000EAF80646002D11D1264989891E390A22DF
:1020C00051430846FEF7ECFA07463146FEF782F820
:1020D0000646304602F0BCFB0BB0F0BD0021304696
:1020E000FEF7A6FB05D81C493046FEF773F80646F6
:1020F00004E019493046FEF7BEF8064615498989BD
:102100001E390A2251430846FEF7DCFA0791069071
:102110003046FEF72BFB114A114B01910090FEF760
:10212000DFF900220F4B03910290FEF727F905918A
:102130000490079B069AFEF721F909910890FEF793
:1021400051FB0646304602F083FBC5E70000244001
:10215000000080BFC40000200000A040CDCCCCCC4B
:10216000CCCCFC3F0000A940F0B587B0064600206B
:102170000690002700BF9E48007800287CD00020F1
:102180009B49087006A9082001F0A8FC6846017E5A
:1021900004200143069106A9082002F011FE06A9B9
:1021A000082001F09BFC06A9062001F097FC684678
:1021B000007E070406A9052001F090FC6846007E19
:1021C0000002074306A9042001F088FC6846007E4F
:1021D000074306A9082001F081FC6846007E06211D
:1021E0008843069006A9082002F0EAFD06A9082007
:1021F00001F074FCF079401CC0B2F07103287DDD61
:10220000B068C019B060F079062877D10321B068B2
:10221000FDF7A4FF07460120C0053840002816D06E
:1022200001210906C81BFEF746FA72490490FEF721
:1022300067F80590FEF79AFA04460D4600226E4BA9
:1022400020462946FEF74CF904460D460BE0384679
:10225000FEF731FA67490490FEF752F80590FEF751
:1022600085FA04460D467079042823D005DC012840
:1022700008D0022808D108E0B7E008286CD0102860
:10228000F8D141E05D4830C09DE05C480CC80020BA
:102290005B49FEF78DF922462B4605910490FEF727
:1022A0001FF904460D4620462946FEF79BFA55497C
:1022B000086088E051480CC800205349FEF778F9BF
:1022C00022462B4605910490FEF70AF904460D4676
:1022D000B089FEF70BFA00224C4B05910490204682
:1022E0002946FEF7FDF803910290059B049AFEF73C
:1022F0005FF904460D462046294600E06AE0FEF7F5
:1023000071FA434908605EE03C480CC800203E4931
:10231000FEF74EF922462B4605910490FEF7E0F8B1
:1023200004460D46B089FEF7E1F90022374B0591CE
:10233000049020462946FEF7D3F803910290059BAE
:10234000049AFEF735F904460D4620462946FEF765
:1023500049FA3049086036E028480CC800202A496C
:10236000FEF726F922462B4605910490FEF7B8F8B1
:1023700004460D4622462B4600200146FEF7A2F8F1
:1023800004460D4622462B4600202349FEF7A8F8B6
:102390000022224B01910090FEF79AF822462B462C
:1023A00003910290FEF704F905910490FEF71AFAE2
:1023B0001B4908601B48016819480068FDF763FF66
:1023C0001749086000BF00BF7079B07101F012FFBB
:1023D00000207071144801780078401C124A107077
:1023E000022902DB00201146087007B0F0BD000092
:1023F00010000020D0DD064B0000F0BF4800002098
:1024000000889340280000200000F43F00408F40E7
:10241000200000202C0000200000694000406F4098
:1024200014000020180000208400002070B504462D
:102430000D4600260E48008801210905081A86B2BB
:102440000DE00B480088301880B20A2807DD2046CE
:10245000FFF78AF800F0D2FC0020C04370BD294687
:102460002046FFF76BF80028EBD00020F6E70000CD
:102470005400002070B5002002F07EFC102002F015
:102480007BFC002418E02146B031C8B202F074FC95
:10249000002002F071FC102002F06EFC002504E028
:1024A000002002F07DFC681CC5B2802DF8DB002006
:1024B00002F076FC601CC4B2082CE4DB70BD10B5E1
:1024C000002408E02146621CD4B20907080E0D2240
:1024D000022100F027F9082CF4DB10BD10B53020E4
:1024E00007490870002048700871C8708870012082
:1024F0008881002088710821014801F049FF10BD42
:102500001401002010B538200849087007204870D1
:10251000032008710020C87088700820888100207E
:1025200088711021014801F033FF10BD1401002013
:1025300010B508200949087001204870062008716C
:102540000820C87000208870802088810020887151
:102550000421024801F01CFF10BD000014010020FE
:1025600010B50A460146002900D110BD02E0002343
:102570000B70491C1346521E002BF8D100BFF4E724
:1025800070B5002500245A48C07D002844D1584821
:102590008079012803D156488078002807D1544813
:1025A0008079002837D152480078002833D050482D
:1025B0008079012800D140254D48807901280FD12C
:1025C0004B48407E002805D149488078401E484944
:1025D000487614E04648407E401E454948760EE065
:1025E0004348407E002805D141480078401E4049BC
:1025F000487604E03E48407E401E3D4948763C48CF
:1026000000F056FF3B480068C0893B4988426ED0C5
:10261000374801F053FF6AE03548C07D012866D194
:102620003348007E002802D101F012FE5FE03048FE
:10263000007E012813D12E48007A012148402C4900
:102640000872012208312D4802F076FB2848007AF2
:10265000284909680872264802F0D2F847E0244861
:10266000007E022823D12248C079012801D12824E4
:1026700000E014241E484089002802DC1C484481E4
:1026800004E01B484089401E19494881FFF7F4FACD
:102690000F221B491948801E01F000FA1448408996
:1026A000144909684881124802F01EF81FE01048DA
:1026B000007E03281BD10E488089002803DC3C20C3
:1026C0000B49888104E00A488089401E08498881B6
:1026D000022207490C310948001D02F02DFB044875
:1026E0008089044909688881014802F023F870BD97
:1026F000C400002088000020FFFF0000C81F000069
:10270000E000002010B5C8230021002207E00022CD
:1027100001E0541CA2B29A42FBDB4C1CA1B28142E4
:10272000F5DB10BD70B506460D461446092C0FDCCE
:1027300060000F30C2B229463046FFF75DF86000F6
:102740001030C2B2A81CC1B23046FFF755F80BE0FA
:10275000224629463046FFF74FF8601CC2B2A81C3B
:10276000C1B23046FFF748F870BD70B506460C465A
:1027700015462A462146304601F03EF8681CC2B292
:10278000601CC1B2304601F037F8A81CC2B2A01CD0
:10279000C1B2304601F030F8E81CC2B2E01CC1B250
:1027A000304601F029F870BDFFB587B017461C46CA
:1027B000002006900590002500263846FDF7A4FF6E
:1027C00080B20690069A08990798FFF77BF8059063
:1027D0000598C10007980818C5B2002C32D02E22E7
:1027E00028460899FFF736F8012620E031460A20EE
:1027F00001F032F80090FDF75EFF39460190FDF7D9
:1028000042FD0290FDF780FF80B20A210390FDF7A0
:10281000BBFC3031C8B2711ECA00691D511804904A
:10282000C8B2049A0899FFF715F8701CC6B2A64200
:10283000DCDDE200691D5118C8B2109A0899FFF753
:1028400009F80BE02846109A0899FFF703F8294683
:102850000831C8B220220899FEF7FCFF0BB0F0BD8A
:1028600070B504460D46E07D00280AD12946204671
:1028700000F098FE204601F009FF204601F01EFE00
:102880005AE0E07D01283BD1204601F0F3FD022310
:102890002A4A0021092000F09BFF3A22002129202A
:1028A000FEF7D8FF204601F08DFF0223244A194687
:1028B000092000F08DFF3A2202212920FEF7CAFFED
:1028C000204601F09DFF04231E4A1946092000F00E
:1028D0007FFF3A2204214920FEF7BCFF204601F089
:1028E00003FF0223184A0621092000F071FF3A2253
:1028F00006212920FEF7AEFF204601F01BFF1BE05A
:10290000E07D022818D111A200210846FFF718F82F
:1029100010A202210020FFF713F80FA20221482085
:10292000FFF70EF80DA204210020FFF709F80CA212
:1029300006210020FFF704F870BD0000E2660000E9
:10294000E6660000E8660000EC660000436F653A4A
:102950000000000052613A0054613A00566F3A009C
:10296000546F3A0010B502200549C875FFF782FD83
:1029700000210348FFF774FF01F0CAF910BD000001
:10298000C400002010B50120FFF728F801F0B4F8CA
:1029900010BD10B500F078FB10BD70477047704750
:1029A00010B5FFF737FB02F085F9154800780128CC
:1029B00004D1002012490870FFF7F1FF1148007898
:1029C000012804D100200F490870FFF7E2FF0E48EC
:1029D0000078012804D100200B490870FFF7DEFFC2
:1029E0000A480078012809D10020084908700848E1
:1029F0000088401C06490880FFF7CFFF10BD00008B
:102A0000590000205A0000205B0000205C000020DC
:102A100030000020074800781021884305490870DD
:102A20000020054908800548007880088000034997
:102A300008707047670000207600002078000020B2
:102A4000074800782021884305490870002005497F
:102A500008800548007880088000034908707047A6
:102A600067000020720000207400002010B5A64806
:102A70000078C007C00F002808D0FF210131A3480B
:102A8000FEF7E6FC002801D000F056F99E480078D9
:102A900020210840002807D049019C48FEF7D8FCB7
:102AA000002801D0FFF7CCFF97480078102108409C
:102AB000002807D049019548FEF7CAFC002801D03C
:102AC000FFF7A8FF9048007804210840002816D09E
:102AD00049028E48FEF7BCFC002810D08C480078D4
:102AE000C007C00F002808D089480078022108409C
:102AF000002802D131208749087000F033F9FF2106
:102B000001318248FEF7A4FC00283CD17E480078C1
:102B1000C007C00F002834D07F480078C007C00F1E
:102B2000002811D17D4800887D490988401880B26D
:102B3000022828DD7848007801210843764908708A
:102B40000120744908701EE0734800780221084093
:102B5000002818D17148008871490988401880B24E
:102B6000FF21913188420EDD02206A4908706A48CF
:102B700000780221084368490870002067490880EE
:102B800001E001F003F8012189026048FEF760FCD2
:102B900000283AD15C48007820210840002832D033
:102BA00060480078C007C00F002811D15E48008837
:102BB0005B490988401880B2022826DD5948007810
:102BC00001210843574908701120524908701CE040
:102BD0005448007802210840002816D15248008845
:102BE0004F490988401880B264280EDD12204949F7
:102BF00008704C480078022108434A4908700020B8
:102C00004949088001E000F0A9FF012149023F483D
:102C1000FEF71EFC00283AD13B48007810210840FE
:102C2000002832D041480078C007C00F002811D1D9
:102C30003F4800883A490988401880B2022826DDBA
:102C40003A48007801210843384908702120314969
:102C500008701CE03548007802210840002816D191
:102C6000334800882E490988401880B264280EDD58
:102C70002220284908702D480078022108432B495A
:102C8000087000202A49088001E000F047FF012178
:102C9000C9021E48FEF7DCFB002834D11A48007830
:102CA0000421084000282CD019480078C007C00F24
:102CB00000280ED11F48008819490988401880B2A1
:102CC000022820DD124800780121084310490870CD
:102CD00019E00F48007802210840002813D1154858
:102CE00000880F490988401880B2C8280BDD3220BF
:102CF0000849087006480078022108430449087012
:102D000001E000F05FFF10BD6700002000000B40F5
:102D10007C000020660000206E0000207000002073
:102D20005400002074000020720000207800002071
:102D3000760000207A000020074800784008400014
:102D4000054908700020054908800548007880087A
:102D50008000034908707047670000207000002061
:102D60006E00002007480078042188430549087058
:102D70000020054908800548007880088000034944
:102D800008707047670000207A0000207C00002057
:102D900000B502200449487004484860044888602F
:102DA000084600F051F800BD04010020AC570000B7
:102DB000AE57000000B5062004494870044848603A
:102DC00004488860084600F03FF800BD0401002078
:102DD000B0570000B657000000B502200449487003
:102DE0000448486004488860084600F02DF800BD9B
:102DF0000401002094570000965700000EB50121F1
:102E00006846817001800120029069460C48FEF7F7
:102E1000DBFA0221684601800120029069460848D9
:102E2000FEF7D2FA012211460548FEF71AFB0122ED
:102E300002210348FEF715FB024801F0CFFE0EBD4C
:102E400000200B40008004400021064A118001212F
:102E5000C170054949680978817000210170C1601D
:102E600070470000560000200401002010B50D48F6
:102E7000C07900280BD10B4949890846FF307330CF
:102E8000FDF70EFC04460849FDF73AFA10BD054966
:102E90004989064A8818FDF703FC04460249FDF7F4
:102EA0002FFAF3E7C400002000002041D9030000FE
:102EB00070B5044601250AE00A2C01D2284670BDEF
:102EC0000A212046FDF74AF90446681CC5B2F3E71B
:102ED000F3B587B00D46002400273BE02C20684363
:102EE0001E494018A100465831460798FDF796FC48
:102EF0002ED82C20684319494118601E80000858BC
:102F0000069006990798FDF793FC1FD820460A21E2
:102F100048430A38C7B23846FDF7CDFB0590304626
:102F20000699FDF7A8F9039006990798FDF7A3F90C
:102F30000B490190FDF7A7F902900399FDF7E0F91D
:102F400004900599FDF746F909B0F0BD0548FBE787
:102F5000601CC4B20B2CC1DB0248F5E7D04E000068
:102F6000000020410000AAC2F0B587B00E46174607
:102F70001D46002400200690344623E060001349DB
:102F8000085A0690069885421ADB0698FDF7AEFBB4
:102F90000F4A104B01910090FDF7A2FA05910490A1
:102FA0002846FDF7A3FB03910290059B049AFDF7C9
:102FB000F1FB02D8204607B0F0BD601EC0B2FAE7B0
:102FC000601CC4B2BC42D9DDFF20F4E7DC4D000038
:102FD000666666666666F03FFEB506462748016887
:102FE0003046FDF750F926490090FDF74CF90746A9
:102FF000FDF78AFB84B200200190792001902148DE
:10300000008DA0420FDB1F484030008FA0420ADC39
:1030100023463C2214211B48FFF7A6FF05462846FD
:103020001438C0B2FEBD1748008DA0420EDB154813
:103030000088A0420ADC2346142200211148FFF731
:1030400093FF054628461438C0B2EBE70D48C03060
:10305000008EA0420FDB0B484030008FA0420ADCFC
:10306000234678223C210748FFF77EFF0546284685
:103070001438C0B2D6E7FF20D4E7000018000020C3
:1030800000002041DC4D0000094800780221084082
:10309000002802D011200749087007480078022153
:1030A0000840002802D02120024908707047000023
:1030B000740000206600002078000020FEB500208B
:1030C00001900090002174480068FDF7A7FB02D131
:1030D00072487149086070480068FDF747FB044674
:1030E0006F4A704BFDF74AF90646FDF77BFB6A49CC
:1030F00008607F21C90568480068FDF799FB02D286
:1031000066486549086068490888FDF7D4FA0646AC
:10311000614801683046FDF7B6F80546FDF7F4FA58
:1031200084B222460221614801F05EFA6048C07D07
:10313000002845D15E488079012803D15C48807819
:10314000002807D15A488079002838D1584800789B
:10315000002834D056488079012801D140200190C0
:103160005348807901280FD15148417E8078401E14
:10317000814203DB00204E49487614E04C48407EF3
:10318000401C4B4948760EE04948417E0078401E7D
:10319000814203DB00204649487604E04448407EF3
:1031A000401C43494876424800F082F94148006893
:1031B000C089414988426ED03D4801F07FF96AE0FC
:1031C0003B48C07D012866D13948007E002801D1E6
:1031D00001F03EF83648007E012812D13448007ACA
:1031E000012148403249087201220831334801F078
:1031F000A3FD2F48007A2F49096808722C4801F076
:10320000FFFA2B48007E022825D12948C0790128E1
:1032100002D12820009001E0142000902448418928
:103220000098814203DB00202149488104E02048C6
:103230004089401C1E49488102221D490A311F480D
:10324000801C01F079FD1A4840891A4909684881B3
:10325000174801F049FA1648007E03281BD114488C
:1032600080893C2803DB00201149888104E0104854
:103270008089401C0E49888102220D490C310F487B
:10328000001D01F059FD0A4880890A4909688881B2
:10329000074801F04FFAFEBD40000020CDCCCC3DE8
:1032A0009A9999999999A93FB00000200010074078
:1032B000C400002088000020FFFF0000C81F00009D
:1032C000F8B50446002700212046FEF7D5FE074644
:1032D0006A488079002875D13846FDF747FA0546D7
:1032E0000022674BFDF76AFA54D83846FDF73EFADC
:1032F00005460022634BFDF74DFA4BD8FFF748FD1A
:103300005E48C1792046FEF7B7FE0746FFF7AEFDDF
:1033100005463946FDF782FA03D8012057498876D9
:1033200002E00020554988765448C4810A21564855
:1033300000680E30FFF714F9504840784F4948763E
:10334000084600783F2803DA08460078401C0870D9
:103350004A4840783F2803D100204849487004E09B
:1033600046484078401C45494870444800784649E2
:1033700009680870414840784349096848703F48E7
:10338000FEF78EFC01213D4800F00CF93B4801F0AE
:1033900095F872E0FFF70EFD3846FDF7E7F90546B0
:1033A0000022374BFDF7F6F903D202203349887625
:1033B00002E00320314988760121304800F0F2F81C
:1033C0005BE0FFE72D488079012856D12F49384628
:1033D000FDF72EFA3FD82E493846FDF71FFA3AD8A6
:1033E000FFF7D6FC0020254988760846C4810A21CB
:1033F000254800680E30FFF7B3F82048C0781F4911
:103400004876084680783F2803DA08468078401CD2
:1034100088701A48C0783F2803D100201749C87027
:1034200004E01648C078401C1449C87013488078DE
:103430001549096888701148C07813490968C8702F
:103440000E48FEF72DFC01210C4800F0ABF80B48AC
:1034500001F034F811E0FFF7ADFC39460B48FDF7F9
:10346000E7F903D202200549887602E003200349E8
:1034700088760121014800F095F8F8BDC4000020CD
:1034800000003E400000454088000020000020C2AF
:103490000000E64210B5012208210448FDF7E1FFD3
:1034A000012240210148FDF7DCFF10BD00000B4068
:1034B00010B50446A079002808D1617E08010922D0
:1034C0000C4909680E3100F0E9FA0BE0A0790128F7
:1034D00008D1617E403108010922064909680E3190
:1034E00000F0DCFA0922034801680E310248FCF7BB
:1034F0005FFE10BD88000020D20000200024FEF7EF
:1035000048F9601E1F494862C8620863FEF71CFC48
:1035100000F0D4F9FEF7B8F8FDF7ACFCFDF796FE25
:103520000124A4022046FDF783FA174801F056FB58
:10353000FDF7D4FE00F0ECFB14481549088002208A
:10354000887014491248FDF7A5FB00F0FDF918E05A
:103550001148FEF709FE104800F0F6FBFFF786FA67
:103560000E480078002801D0FEF7CAF80C48008801
:10357000002806D00A480088401E09490880FFF745
:103580000FFAE5E700800840008004400F270000A4
:10359000B000002000100740140100206600002049
:1035A00056000020F0B587B004460F4600250020E5
:1035B0000690059004900026FEF781FFA079002870
:1035C00004D17DA200213820FEF7BAF9002F03D0E4
:1035D000E0897B49884214D1292202212020FFF76B
:1035E000A1F8292202213020FFF79CF8292202218C
:1035F0004020FFF797F8292202215020FFF792F888
:10360000D7E0A07E002802D0A07E01287ED1A07E37
:10361000012805D102236B4A0021382000F0D8F898
:10362000E179E089FEF728FD0690069801F002F99D
:1036300005900598FDF768F880B20490A0790028FD
:1036400013D1E079002802D14025022622E0E0795A
:1036500001281FD15C490598FDF7EAF802D84825F2
:10366000032617E04025022614E0A079012811D195
:1036700055490598FDF7DCF802D84825032609E0EE
:1036800052490598FDF7D4F802D84025022601E0FA
:103690004025012600210698FDF7C0F81AD2022E17
:1036A00007DD29464039C8B229220221FFF73AF83E
:1036B00010E0022E07D129463039C8B22922022152
:1036C000FFF730F806E029462039C8B22922022146
:1036D000FFF728F8032E0CDB64210498FCF754FD57
:1036E000C0B2294630390390C8B20221039AFFF7CD
:1036F00019F8022E12DB0A210498FCF745FD0A2175
:103700000290FCF741FDC8B2294600E047E02039AD
:103710000390C8B20221039AFFF704F80A21049823
:10372000FCF732FDC8B2294610390390C8B2022115
:10373000039AFEF7F7FF272202212846FEF7F2FF41
:1037400022490598FCF79FFD0190FCF7DDFF80B250
:103750000A210290FCF718FDC8B2294608310390EF
:10376000C8B20221039AFEF7DDFF29461831C8B21C
:103770002B220221FEF7D6FFE079002807D1294647
:103780002031C8B223220221FEF7CCFF11E02946E6
:103790002031C8B225220221FEF7C4FF09E03922F8
:1037A00002212020FEF7E1FF3D2202214020FEF70A
:1037B000DCFF07B0F0BD000020202020000000004A
:1037C000FFFF0000E86600000000C8420000204142
:1037D000FFB581B0054616461F46002408E0325D5D
:1037E00021014919C8B20299FEF706F8601CC4B25B
:1037F000BC42F4DB05B0F0BDF7B506461546002720
:1038000030460199FDF7E0FF002409E06901114A03
:103810008918085D01F0C4FA781CC7B2601CC4B2F4
:10382000102CF3DB31461031C8B20199FDF7CCFF03
:1038300000240BE06900491C0901064A8918085D4B
:1038400001F0AEFA781CC7B2601CC4B2102CF1DBD8
:10385000FEBD00007A5D000010B50246012002E0C6
:103860000346534318460B464C1EE1B2002BF7D1DA
:1038700010BD000010B50E480078002800D010BD23
:1038800000F098F90B480078002806D0002009497C
:1038900008700949C87500F057F80748C07D00282E
:1038A00001D1FEF71BFE00F027F900BFE7E700009B
:1038B0007C00002034000020C40000200EB5002150
:1038C0006846817002210171C902018001200290C5
:1038D00069461B48FDF778FD0421684601800220F7
:1038E000029069461748FDF76FFD08216846018080
:1038F0000220029069461348FDF766FD01216846E3
:103900008170090301800120029069460C48FDF78F
:103910005BFD012211030A48FDF7A3FD0121684662
:103920008170C90301800120029069460448FDF7B7
:103930004BFD0122D1030248FDF793FD0EBD0000AF
:1039400000200B4000400B4010B500F09FFFFFF738
:10395000A1FD012208214848FDF783FD0A20FEF75A
:10396000D1FE002208214448FDF77BFD0A20FEF726
:10397000C9FE012208214048FDF773FD0A20FEF729
:10398000C1FEAE2001F0F8F9002001F0F5F9102099
:1039900001F0F2F9402001F0EFF9B02001F0ECF96C
:1039A000812001F0E9F9CF2001F0E6F9A12001F032
:1039B000E3F9A62001F0E0F9A82001F0DDF93F20AD
:1039C00001F0DAF9C82001F0D7F9D32001F0D4F9D9
:1039D000002001F0D1F9D52001F0CEF9802001F0CE
:1039E000CBF9D92001F0C8F9222001F0C5F9DA207D
:1039F00001F0C2F9122001F0BFF9DB2001F0BCF99F
:103A0000302001F0B9F98D2001F0B6F9142001F051
:103A1000B3F9FEF72FFDAF2001F0AEF900201749F2
:103A2000088000BF154800881428FBDD00201349DA
:103A300008801348C07D022819D112A2002108462F
:103A4000FDF77EFF11A202210020FDF779FF10A2F1
:103A500002214820FDF774FF0EA204210020FDF78B
:103A60006FFF0DA206210020FDF76AFF03E0002191
:103A70000348FEF7F5FE10BD00000B405600002085
:103A8000C4000020436F653A0000000052613A0014
:103A900054613A00566F3A00546F3A00FEB504463E
:103AA0000D4616460027FF430020029000BFE0B2FB
:103AB000019600902004030E2A46A021064800F03B
:103AC0000BFF0746002F05D00298401CC0B20290A1
:103AD0000328ECDBFEBD00000080044038B504463E
:103AE0000D46012023462A46D0210090014801F0CE
:103AF00003F838BD0080044005480078002803D052
:103B000004200449088002E0034802490880704705
:103B10003400002032000020E02E000000B5FEF747
:103B200079FF0748008801210904081A054908801F
:103B300005480078102108430349087000BD0000C3
:103B400054000020760000206700002000B501210D
:103B50000903012000F04EF800BD000000B5FEF79B
:103B60006FFF0748008801210904081A05490880E9
:103B700005480078202108430349087000BD000073
:103B800054000020720000206700002006480088D2
:103B900001210904081A0549088005480078012117
:103BA000084303490870704754000020700000204B
:103BB0006700002000B50121C903012000F01AF8B8
:103BC00000BD000000B5FFF7CDF8074800880121CF
:103BD0000904081A054908800548007804210843AB
:103BE0000349087000BD0000540000207A00002046
:103BF0006700002010B58200044B9A58126A4A40B0
:103C00008300024CE3581A6210BD0000F066000009
:103C100010B50C480078002802D0FEF7A3FE10E093
:103C20000948C07D002803D101200749C87502E07A
:103C300000200549C875FEF71DFC00210248FEF76B
:103C40000FFE10BD6E000020C400002010B52D48EE
:103C5000C07D002843D12B488079012815D1002050
:103C60002849887108464078002804D008464078E2
:103C7000401E487603E0234840782249487622488F
:103C80000068C0891F49C88114E001201D4988715E
:103C90000846C078002804D00846C078401E487600
:103CA00003E01848C0781749487617480068C0896B
:103CB0001449C8811348FFF7FBFBFEF7DBFB1148F3
:103CC000807911490968887101220E49891D0F48C0
:103CD00001F032F800210B48FEF7C2FD11E009485F
:103CE000C07D01280DD10748017E007E401C054A99
:103CF0001076032902DB002011460876014800F007
:103D0000B9FB10BDC400002088000020C61F0000C1
:103D100008B50021009169460A20FFF7DFFE6946D9
:103D20000720FFF7DBFE002100916946072001F024
:103D300047F80021009169460720FFF7CFFE0021D8
:103D4000009100F01FF908BDFEB504460027A079D8
:103D500000287DD0A079C007C00F002815D0634887
:103D6000C07D02280DD1624903C9FCF73BFD054621
:103D7000202003232A4600210090FEF715FDFEF7C0
:103D8000C1FBA07940084000A071A079082108403B
:103D900000282DD0FEF7CCFB5448C07D022808D166
:103DA0004B20012300905348022102681820FEF79F
:103DB000FBFCA07908218843A0714E480068FFF7FA
:103DC0000BF94D4908704948C07D022810D10021E7
:103DD00048480068FCF722FD0AD0474802780221D3
:103DE0006020FDF76FFD3D2202217020FDF732FDBE
:103DF000A07910210840002811D0A0798843A07133
:103E00003A48C07D02280AD12020022300903B4876
:103E1000002102685020FEF7C7FCFEF75FFBA07987
:103E200004210840002860D0A0798843A07134485C
:103E30000068FCF79BFC0546324A334BFCF79EFAC0
:103E400001910090FCF7CEFC2D490860274800E066
:103E50004BE0C07D02281DD1002129480068FCF7F5
:103E6000E7FC09D86D20032300902548042102684F
:103E70001820FEF799FC0DE02D2204211820FDF7F3
:103E8000E9FC6D20022300901D48042102682020D7
:103E9000FEF78AFC1848017819480068FFF718F8FF
:103EA0001A4908601148C07D022809D13D2001232C
:103EB00000900846062102682020FEF775FC14E0F9
:103EC000134912480068FCF7DEF90546FCF71CFCB4
:103ED00087B200210D480068FCF7A0FC02D2012047
:103EE000C00307433846FFF7EBF9FEBDC4000020CE
:103EF00048000020140000201C0000202C0000209E
:103F000020000020295C8FC2F528BC3F240000203F
:103F1000000020410EB50020009001900290012188
:103F2000684681700021C170082101800020029044
:103F300069461348FDF748FA012208211048FDF7A9
:103F400090FA4021684601800020029069460C48A2
:103F5000FDF73AFA012240210948FDF782FA0522CD
:103F600010210020FCF754FF052280210020FCF7DF
:103F70004FFF052220210020FCF74AFF0EBD000064
:103F800000000B4008B50021009169461120FFF7A1
:103F9000A5FD68460078012108430090694611207C
:103FA00000F00EFF00BF0021009169461120FFF7CD
:103FB00095FD68460078022108400028F3D00021D2
:103FC000009169460B2000F0FBFE69460B20FFF7CD
:103FD00085FDC021009169460D2000F0F1FE694683
:103FE0000D20FFF77BFD69460020FFF777FD68464F
:103FF00001788020014300916946002000F0E0FE36
:104000000021009169460020FFF768FD00207749F4
:10401000088000BF754800880528FBDB6946012041
:10402000FFF75CFD68460078C109C9010091684648
:10403000017800916946012000F0C2FE0021009144
:1040400069460120FFF74AFD69460220FFF746FD59
:10405000684601787E20814300916846017800918E
:104060006946022000F0ACFE002100916946022062
:10407000FFF734FD69460920FFF730FD68460078F8
:10408000410949010091684601781F2001430091D0
:104090006946092000F094FE00210091694609203C
:1040A000FFF71CFD69460720FFF718FD68460078FA
:1040B00041094901009168460178042001430091BB
:1040C0006946072000F07CFE002100916946072028
:1040D000FFF704FD69460820FFF700FD68460178F8
:1040E000E0208143009168460178009169460820EC
:1040F00000F066FE0021009169460820FFF7EEFC03
:1041000069460320FFF7EAFC6846007881098901C7
:104110000091684601782E200143009169460320F2
:1041200000F04EFE0021009169460320FFF7D6FC07
:1041300069460720FFF7D2FC68460178602081437A
:1041400000916846017800916946072000F038FE2A
:104150000021009169460720FFF7C0FC694607204F
:10416000FFF7BCFC684601788020814300916846D7
:1041700001788020014300916946072000F020FE6D
:104180000021009169460720FFF7A8FC6946082036
:10419000FFF7A4FC68460178062081430091694638
:1041A000082000F00DFE0021009169460820FFF76D
:1041B00095FC69460720FFF791FC6846017880204E
:1041C000814300916846007800906946072000F01E
:1041D000F7FD012006494871002088718860C87188
:1041E000012088810846FDF7BFFF08BD560000206A
:1041F0001401002008B50021009169460720FFF74F
:104200006DFC684601788020814300916846017802
:104210008020014300916946072000F0D1FD6946E6
:104220000720FFF75BFC69460820FFF757FC68464C
:1042300001780620814300916946082000F0C0FD06
:104240000021009169460820FFF748FC08BD0000E6
:10425000F0B585B0002400274548C07901214840C9
:104260004349C8710846C079012837D149890846B1
:10427000FF307330FCF726FA05463E4A3E4BFCF70A
:104280002FF900223D4B01910090FCF777F8039144
:104290000290FCF7A7FA07463846FCF767FA0022B7
:1042A000374B03910290FCF769F80546FCF740FA9A
:1042B00084B23448844203DD28202D49488143E0FC
:1042C00030482838844203DA0020294948813BE0FD
:1042D0002C482838201A2649488135E02449498944
:1042E000284A283A89180846FF384138FCF7EAF985
:1042F000204A214B03910290FCF75AF90546FCF73E
:1043000071FA07463846FCF731FA00221C4B03913C
:104310000290FCF733F80546FCF70AFA84B2FF2056
:104320008730844203DD1420114948810CE0FF20CE
:104330007330844203DA00200D49488104E02046AE
:10434000FF3873380A49488101220949C91D0E48BE
:1043500000F0F2FC0648C0790C490968C8710448AD
:1043600000F030FA024800F0BFF905B0F0BD0000DF
:10437000C4000020CDCCCCCCCCCCFC3F00007440A1
:104380000000E03F01040000C71F0000880000207B
:1043900038B504460D46002000906079002865D1AC
:1043A0003348457169460720FFF798FB6846017856
:1043B000802081430091684601788020014300916C
:1043C0006946072000F0FCFC69460720FFF786FBE2
:1043D00069460820FFF782FB684601780620814382
:1043E00000916946082000F0EBFC69460820FFF7C1
:1043F00075FB69460120FFF771FB68460078C1092B
:10440000C9010091A078E178084321790843694601
:104410000978084300906946012000F0D1FC694604
:104420000320FFF75BFB6946087880098001009054
:104430002078617808436946097808430090694606
:10444000032000F0BDFC69460720FFF747FB6846E4
:104450000178802081430091684600780090694689
:10446000072000F0ADFC0020A060E07138BD000026
:104470001401002070B50546002419E0287EA042F2
:104480000BD12A7E52000C4BD21851782A7E520052
:10449000985C3E22FDF7DEF908E06200064BD21878
:1044A00051786200985C2022FDF7D4F9601CC4B2F8
:1044B000032CE3DD70BD0000BC570000FEB50446D0
:1044C00000250026002002900027E0893F4988420D
:1044D0007BD002233E4A06210120FFF779F9607E56
:1044E000C117890E091889118901411A491CCDB2D9
:1044F000202206212120FDF7ADF90A2D10DB0A212B
:104500002846FBF741FE0A210090FBF73DFE3031C3
:10451000C8B20246062101902920FDF79BF904E06C
:10452000302206212920FDF795F90A212846FBF7BC
:104530002BFE3031C8B20246062101903120FDF732
:1045400089F924A206213920FDF7FAF9E179E089F9
:10455000FDF792FD0290029800F06CF907461FA249
:1045600006214320FDF7ECF91D493846FCF760F9B8
:1045700001D8432607E01B493846FCF759F901D812
:104580004B2600E0532600210298FCF747F904D29D
:104590002D2206213046FDF75DF93D2031460A31D6
:1045A0000090C8B201233A460621FEF7FDF8E079F3
:1045B000002805D1432206217820FDF74BF904E0BD
:1045C000462206217820FDF745F9FEBDFFFF0000D9
:1045D000E066000020202020200000002020200095
:1045E0000000C84200002041FEB504460E461546B4
:1045F00018490888FCF75FF801902846FCF75BF83B
:1046000000900199FBF77CFE07468820005980B294
:10461000A84202DA8820005985B2012E04D19020E8
:1046200005510C48476013E0022E04D19420055137
:10463000084887600CE0042E04D10648C760982023
:10464000055105E0082E03D1024807619C20055161
:10465000FEBD0000B0000020FEB504460E46154623
:1046600009490888FCF727F831460090FBF70BFE54
:104670000746FCF749F880B20246214601902846D9
:10468000FFF7B2FFFEBD0000B000002010B50446E9
:1046900010A200212120FDF753F9A079C10F0918BC
:1046A00049104900411A05D102230D4A0120FFF7A4
:1046B0008FF80DE0A079C10F091849104900411A7F
:1046C000012905D10423074A00210120FFF780F8C2
:1046D00010BD00002020202020202020000000000D
:1046E000DA660000DC660000F8B504460025002606
:1046F000E079002802D1FF26733600E00B4E618975
:104700008819FBF7CDFF07460949FBF7F9FD054678
:10471000202204217720FDF79DF83D2001232A4621
:10472000042100905120FEF73FF8F8BDD9030000A6
:1047300000002041F8B504460025A18908461E382E
:10474000FBF7AEFF06461C49FBF7DAFD05460021E4
:104750002846FCF76DF812D83D2001232A46062191
:1047600000903120FEF720F8202206214F20FDF78F
:1047700071F812A206215120FDF7E2F815E02D2272
:1047800006213120FDF766F8284600F053F806466A
:104790003D2001233246062100903920FEF704F81F
:1047A00006A206215720FDF7CBF82022062178200B
:1047B000FDF750F8F8BD0000000020412020202027
:1047C0002000000010B504463D2200213120FDF7F5
:1047D00041F8E079002805D1432200213920FDF776
:1047E00039F804E0462200213920FDF733F803A20E
:1047F00000214120FDF7A4F810BD0000202020007A
:1048000010B50446207A002805D142220221312029
:10481000FCF7F2FF04E0412202213120FCF7ECFF1B
:1048200002A202214120FDF78BF810BD202020209C
:104830002020200010B5044600212046FBF7F8FF99
:1048400001D8204610BD00212046FBF718FDF9E7EE
:1048500070B5044600212046FBF7EAFF08D8094955
:104860002046FBF7B7FC05460749FBF749FD70BD3D
:1048700004492046FBF7AEFC05460349FBF740FD23
:10488000F5E700000000A0400000C84200B58BB072
:10489000FFF740FB012080030090002001900820DA
:1048A00002908002039000200490059006900790EB
:1048B0000890099002200A9069460648FDF74CF9D5
:1048C00001210448FDF76EF901210248FDF72BF99B
:1048D0000BB000BD00400040FFB581B00E4617464A
:1048E0000B9D0024E4437110019800F0BDF80446CC
:1048F000002C07D00198FCF737FEFEF77FFA204620
:1049000005B0F0BD1D2149040198FDF78FFD044657
:10491000002C01D02046F3E704990198FCF7A2FE91
:104920001D2149040198FDF781FD0446002C01D0AA
:104930002046E5E70A990198FCF794FE71100122E0
:1049400092020198FCF790FE1B490198FDF76EFD5D
:104950000446002C01D02046D2E71749C91C019813
:10496000FDF764FD0446002C01D02046C8E7012D68
:1049700003DD01210198FCF7D5FD16E0192109049A
:104980000198FDF753FD0446002C01D02046B7E7FF
:104990000198FCF763FE38707F1C681E85B2012DFC
:1049A00003D100210198FCF7BDFD002DE6D101984F
:1049B000FCF7DAFD0020A3E701001800FFB581B085
:1049C0000E4615461F460024E4437110019800F07E
:1049D0004BF80446002C05D00198FCF7C5FD204695
:1049E00005B0F0BD1D2149040198FDF71FFD0446E7
:1049F000002C01D02046F3E739460198FCF732FE3F
:104A00001D2149040198FDF711FD0446002C01D039
:104A10002046E5E70A990198FCF724FE0EE01D21E7
:104A200049040198FDF702FD0446002C01D0204600
:104A3000D6E729780198FCF715FE6D1C0B98411EEE
:104A400089B20B910028EAD11D2149040198FDF794
:104A5000EDFC0446002C01D02046C1E70198FCF78C
:104A600083FD0020BCE70000F8B505460F46002690
:104A70002048008801210905081A86B208E01D486F
:104A80000088301880B20A2802DD0020C043F8BD3B
:104A90000121C9042846FCF76CFD0028EFD1154818
:104AA000008801210905081A86B222E00022394651
:104AB0002846FCF7D9FD1AE0EC680E48008830184B
:104AC00080B20A2802DD0020C043E0E70420204035
:104AD000002801D00020DAE7012040022040002811
:104AE00005D0012149022846FCF730FD00E0E3E74C
:104AF00000BFDBE754000020FFB581B00D4616462D
:104B00001F460A9C69100198FFF7AEFF00BF1D21E8
:104B100049040198FCF712FD0028F8D039460198A5
:104B2000FCF7A0FD6910012292020198FCF79CFDA0
:104B300000BF18490198FCF701FD0028F9D000BF1B
:104B40001449C91C0198FCF7F9FC0028F8D0012C85
:104B500003DD01210198FCF7E5FC14E000BF1921F9
:104B600009040198FCF7EAFC0028F8D00198FCF74A
:104B700075FD3070761C601E84B2012C03D10021BB
:104B80000198FCF7CFFC002CE8D10198FCF7ECFC75
:104B900005B0F0BD01001800FFB583B017461D46F3
:104BA0000C9E17E0A806800E4021081A0290029879
:104BB000864201DD029800E0304604462B463A4624
:104BC00000940499039800F03FF83F192819C5B2E2
:104BD000301B86B2002EE5D107B0F0BD1FB50446EC
:104BE00000200090019002900390154884420AD161
:104BF000072201210020FCF70BF9072202210020E7
:104C0000FCF706F909E0072201210846FCF700F944
:104C1000072202210120FCF7FBF800216846017001
:104C2000417081708180074802906846017369462F
:104C30002046FCF7A7FC01212046FCF789FC1FBD9C
:104C400000900440A0BB0D00FFB581B00D46144696
:104C50001E460A9F69100198FFF706FF00BF1D213D
:104C600049040198FCF76AFC0028F8D03146019805
:104C7000FCF7F8FC0CE000BF1D2149040198FCF78B
:104C80005DFC0028F8D021780198FCF7EBFC641C4F
:104C90003846791E8FB20028EDD100BF1D2149048E
:104CA0000198FCF74BFC0028F8D00198FCF75CFC5D
:104CB00005B0F0BD10B51D48C078012834D11B489F
:104CC0008078002830D019488078401EC0B217493B
:104CD0008870002828D108460078401CC0B20870AF
:104CE0004978884208DB00201049C870104A00212A
:104CF0000220FFF7B1FC17E00C4840680B49097827
:104D0000405C0A498870084680680978405C012840
:104D100005D1074A07490220FFF79EFC04E0044A38
:104D200000210220FFF798FC10BD000004010020C4
:104D3000001007409A99993EFEB504460D46164666
:104D40000027FF430020029000BFE0B201960090D0
:104D50002004030E2A46A0210648FFF72FFE07462F
:104D6000002F05D00298401CC0B202900328ECDB53
:104D7000FEBD00000080044038B5044600940022C7
:104D800040210648FCF76DFB01216846FDF70EF94E
:104D9000012240210148FCF764FB38BD00000B40B4
:104DA00038B504460094012240210448FCF759FB21
:104DB00001216846FDF7FAF838BD000000000B40FD
:104DC00038B504460D46012023462A46D0210090DE
:104DD0000148FFF7E1FE38BD008004403524392248
:104DE0005C209C1EF61C6A1BF51996184B171416AE
:104DF000EE14DA13D512DF11F7101D104E0F8B0EC3
:104E0000D20D240D7F0CE40B510BC50A420AC509D3
:104E10004F09DF0875081008B10756070107AF06EC
:104E200062061906D305910552051605DD04A7048F
:104E3000730443041404E803BD0395036E034A039B
:104E400027030603E602C802AB028F0275025C026A
:104E500044022D0217020202EE01DB01C901B80172
:104E6000A7019701880179016B015D01510144019E
:104E700038012D01220118010E010401FB00F2008E
:104E8000EA00E200DA00D200CB00C400BE00B700A6
:104E9000B100AB00A500A0009B00960091008C0023
:104EA000880083007F007B007700730070006C0037
:104EB00069006600630060005D005A0057005500FD
:104EC000520050004D004B004900470045000000D3
:104ED000000000009CC4403F7593C83F1D5A1C4011
:104EE00039B4584039B48C404260B140D5780D4156
:104EF00017D90241F6281A415EBA3341068195BDA1
:104F00007B142E3F643BBF3F8CB91740310854409F
:104F1000355E8A400C02AF40CFF7D740E3A5014190
:104F2000AAF11841FA7E3241535C15BE5A641B3F08
:104F300054E3B53F6F121340295C4F40310888405D
:104F4000D7A3AC406891D540986E00415EBA174136
:104F500096433141AE4761BEB072083F7F6AAC3FB5
:104F600004560E40BE9F4A40FCA98540A245AA4077
:104F7000D122D3406666FE40E17A164119043041E1
:104F80002B8796BE0C02EB3EAAF1A23F378909405F
:104F900054E34540C74B83403BDFA74039B4D04082
:104FA0009EEFFB40643B154183C02E4191EDBCBE9A
:104FB000A69BC43E1058993F6ABC044087164140E6
:104FC00060E58040A470A540713DCE40A470F940DA
:104FD000E7FB1341EE7C2D410AD7E3BE2DB29D3E87
:104FE000B29D8F3F3BDFFF3F58393C4091ED7C4005
:104FF000DBF9A24077BECB40AAF1F64052B812418D
:105000003F352C41426005BF68916D3E54E3853FBA
:10501000DD24F63F295C3740621078401283A040BF
:105020007D3FC9407F6AF440A470114179E92A416B
:10503000871619BF52B81E3E6210783FBA49EC3F3E
:10504000986E3240D12273404A0C9E4052B8C640FE
:1050500023DBF140F6281041B29D2941CDCC2CBF75
:1050600077BE9F3D1D5A643FD34DE23F06812D40E0
:105070003F356E401F859B402731C440C74BEF40F2
:105080002FDD0E41D34D28419CC440BF00000000DD
:105090004E62503FEC51D83F128328404C37694054
:1050A000F4FD98409A99C14039B4EC40508D0D41BF
:1050B000DBF92641F4FD54BFC1CAA1BDF6283C3F2F
:1050C0000456CE3FBC742340F6286440C97696400F
:1050D0003D0ABF407B14EA40713D0C41E3A52541E8
:1050E0004C3769BFC1CA21BE9EEF273F5839C43F24
:1050F00066661E40A01A5F406DE793407F6ABC4021
:10510000BC74E74079E90A41D34D24412DB27DBFFB
:1051100046B673BEBC74133FE7FBB93FAE471940B8
:10512000E7FB5940DF4F9140C1CAB940CDCCE440C4
:1051300068910941AAF12241871689BFE5D0A2BE34
:10514000B6F3FD3EB29DAF3FF62814402FDD54402C
:1051500052B88E40022BB740DD24E2405839084156
:1051600081952141BC7493BFBA49CCBEE17AD43E4B
:105170007D3FA53FDBF90E4014AE4F4093188C40A5
:10518000E17AB440BC74DF402FDD06413F35204159
:10519000B6F39DBFA245F6BEFA7EAA3E48E19A3F0D
:1051A0005EBA0940986E4A40A4708940C1CAB140B5
:1051B0006ABCDC40EE7C0541FED41E41B072A8BF43
:1051C000C52010BF1283803E8941903FE17A0440A0
:1051D0001B2F4540B4C88640A01AAF40E7FBD9401A
:1051E000AC1C04418B6C1D416F12B3BF426025BFE4
:1051F00031082C3E8FC2853F0456FE3F3BDF3F40C7
:10520000931884404E62AC40643BD74052B8024190
:1052100031081C412DB2BDBFBE9F3ABF3108AC3D25
:105220001904763F46B6F33F5C8F3A40736881407D
:10523000CBA1A940B072D440F8530141A69B1A41BA
:105240007593C8BF4E6250BF000000001283603FDC
:10525000FED4E83FB81E354042607D4017D9A640D5
:10526000FCA9D140D9CEFF401B2F1941F853D3BF21
:1052700054E365BF7B14AEBD83C04A3F7B14DE3F61
:1052800077BE2F40689175406210A44017D9CE4078
:10529000C3F5FC4077BE17410456DEBF6DE77BBF08
:1052A0007B142EBEF4FD343F6F12D33F713D2A4074
:1052B000D34D72407D3FA1400000CC40AC1CFA4071
:1052C000BA4916411058E9BFC3F588BF6F1283BEB3
:1052D000DBF91E3F6210C83F6ABC24406ABC6C40C8
:1052E000986E9E40E926C940643BF740FED41441C5
:1052F000E17AF4BF931894BFB29DAFBE39B4083FB2
:1053000091EDBC3F022B1F40022B674081959B40D3
:10531000A245C640EC51F440295C1341B29DFFBF49
:10532000643B9FBFF628DCBE1D5AE43EC1CAB13FB4
:105330009A991940D578614039B49840295CC340A6
:105340004260F14054E31141A47005C0FA7EAABF47
:10535000A69B04BFC74BB73E2B87A63FCFF7134092
:10536000A8C65B40C1CA9540B072C040986EEE407E
:105370004E621041D1220BC054E3B5BF5A641BBF2B
:10538000713D8A3ED1229B3FA2450E407B14564080
:1053900048E1924077BEBF40BC74EB4048E10E410B
:1053A000FED410C0AE47C1BF0E2D32BF1058393EDB
:1053B00077BE8F3F75930840894150409EEF8F40E4
:1053C0002B87BA40B072E84042600D418D9716C0FD
:1053D000CDCCCCBF4C3749BF355EBA3D5839843F40
:1053E000E5D00240986E4A40F4FD8C401F85B740DE
:1053F000A470E5400AD70B411D5A1CC0EC51D8BF20
:10540000128360BF000000007368713FAC1CFA3F5C
:10541000A69B444019048A401283B4406666E24069
:10542000D34D0A41713D22C09318E4BFD9CE77BF56
:10543000355EBABD23DB593F0456EE3FF0A73E4030
:105440000C028740D578B140F853DF4083C0084153
:10545000C52028C03BDFEFBF14AE87BF5A643BBEF8
:10546000D34D423F5C8FE23F39B43840CFF78340A1
:10547000986EAE408941DC403333074119042EC099
:10548000E3A5FBBF819593BFDF4F8DBE83C02A3F4D
:10549000B4C8D63F83C0324091ED8040295CAB4018
:1054A000E926D940B29D0541CFF733C0A8C603C055
:1054B000EE7C9FBF91EDBCBEAAF1123F48E1CA3F0E
:1054C00008AC2C4046B67B408941A8401904D64020
:1054D00031080441E7FB39C0C1CA09C01F85ABBF11
:1054E000560EEDBE8FC2F53E17D9BE3F8D972640B2
:1054F00068917540B81EA54017D9D240B0720241DC
:10550000621040C03BDF0FC0508DB7BF8D970EBFFC
:10551000B81EC53E21B0B23F12832040C74B6F403A
:10552000E7FBA14014AECF40FED40041DD2446C0CD
:10553000B6F315C00AD7C3BF022B27BFE17A943E4A
:105540002B87A63FD34D1A4025066940E5D09E40E3
:10555000E17ACC40986EFE40BA494CC093181CC00A
:105560000000D0BF77BE3FBFF0A7463E713D9A3FD7
:105570009318144083C06240B29D9B40AE47C9401F
:10558000022BFB40FA7E52C0D34D22C07F6ADCBFA3
:10559000EC5158BFF0A7C63DF2D28D3FF2D20D407C
:1055A0001D5A5C407F6A98401904C6406DE7F74079
:1055B00039B458C0128328C0FED4E8BF736871BFE5
:1055C000000000007368813F508D0740B6F35540DE
:1055D0001B2F954083C0C2407D3FF540DBF95EC084
:1055E000B4C82EC04260F5BF7D3F85BFA245B6BDA1
:1055F0005EBA693F4C370140508D4F4085EB91407A
:10560000BC74BF40AE47F140DF4F65C0B81E35C027
:10561000250601C0C1CA91BF5EBA49BE4E62503F65
:10562000CBA1F53F25064940BE9F8E40F628BC40E1
:1056300085EBED40E3A56BC0BC743BC0295C07C0A3
:105640008D979EBF508D97BE3D0A373F39B4E83FD6
:10565000FA7E4240F8538B40FED4B8402B87EA4094
:105660004A0C72C023DB41C08FC20DC05A64ABBF6D
:1056700083C0CABEA4701D3FA8C6DB3FCBA13D407E
:1056800000008840D578B540D122E740128378C029
:10569000EC5148C0583914C02731B8BFC976FEBE96
:1056A0008195033F52B8CE3F7D3F3540D7A384401C
:1056B0007B14B24046B6E340DBF97EC0B4C84EC0AE
:1056C00083C01AC07D3FC5BF871619BFBC74D33EC7
:1056D000FCA9C13F8D972E40AE478140F0A7AE4058
:1056E0008941E04083C082C0DF4F55C0AE4721C032
:1056F000D34DD2BF333333BF643B9F3E1D5AB43FBB
:105700003BDF2740A8C67B40643BAB40CDCCDC40B0
:105710004A0C86C06DE75BC03BDF27C0EE7CDFBF75
:1057200068914DBFF4FD543E3D0AA73F87162140C6
:1057300091ED7440A8C6A740DF4FD940426089C0B0
:105740005C8F62C0C9762EC008ACECBF273168BF41
:10575000F4FDD43D9A99993F713D1A40BE9F724025
:10576000BA49A440C1CAD54039B48CC04C3769C0CD
:10577000B81E35C0AC1CFABF736881BF00000000C2
:10578000F6288C3F5A641340A01A6740CDCCA04045
:10579000713DD240010A0001010A640A640A640AE8
:1057A00064640001000100010001000101640001C6
:1057B0000A0A0A0A0A0A00010001000100000002A8
:1057C00000040006560256045606000000000000C1
:1057D00000000000000000000000000000F80000D1
:1057E0000000000000333000000000100C06100C18
:1057F0000600000000000000000040C07840C078B3
:105800004000043F04043F040400007088FC08309A
:105810000000001820FF211E0000F008F000E01832
:10582000000000211C031E211E0000F008887000EB
:1058300000001E2123241927211010160E0000003D
:1058400000000000000000000000000000E018045C
:105850000200000000071820400000020418E000C9
:1058600000000040201807000000404080F0804009
:1058700040000202010F01020200000000F00000DF
:1058800000000101011F01010100000000000000F3
:10589000000080B070000000000000000000000068
:1058A00000000001010101010101000000000000F1
:1058B00000000030300000000000000000008060A8
:1058C0001804006018060100000000E0F018081835
:1058D000F0E0000F1F3020301F0F00001010F8F80C
:1058E0000000000020203F3F2020007078080808BA
:1058F000F8F00030382C2623313000303808088882
:10590000F8700018382121233E1C000080C070F878
:10591000F80000060725243F3F2400F8F88888880F
:1059200008080019392020311F0E00E0F0988898EF
:105930009000000F1F3120203F1F0018180888E832
:1059400078180000003E3F0100000070F8880888C9
:10595000F870001C3E2321233E1C00F0F8080818B4
:10596000F0E00001133222331F0F000000C0C0001E
:105970000000000000303000000010F0F080808057
:105980008000203F3F2100203F3F8080808080803A
:105990008000203F20003F20003F000C12120C002E
:1059A0000000000000000000000000F0E0C08000E7
:1059B0000000001F0F0703010000000060600000EE
:1059C00000000000060600000000C030C828E810F3
:1059D000E0000718272423140B000000C038E00063
:1059E0000000203C23020227382008F888888870AD
:1059F0000000203F202020110E00C03008080808B9
:105A00003800071820202010080008F8080808109F
:105A1000E000203F202020100F0008F88888E808C8
:105A20001000203F20202320180008F88888E8086C
:105A30001000203F200003000000C0300808083894
:105A4000000007182020221E020008F808000008A5
:105A5000F808203F210101213F20000808F808082C
:105A600000000020203F2020000000000808F80867
:105A70000800C08080807F00000008F8F8C8E8387F
:105A80001808203F3F21273E382008F80800000072
:105A90000000203F20202020300008F8F800F8F80F
:105AA0000800203F003F003F200008F830C00008F9
:105AB000F808203F200007183F00E01008080810F1
:105AC000E0000F10202020100F0008F80808080838
:105AD000F000203F210101010000E010080808103B
