:020000040000FA
:10000000C0020020AD00000025160000851300008E
:10001000FFFFFFFFFFFFFFFFFFFFFFFFFFFFFFFFF0
:10002000FFFFFFFFFFFFFFFFFFFFFFFF0D180000B7
:10003000FFFFFFFFFFFFFFFF85160000C118000054
:100040001D010000F51600001D0100001D0100004B
:10005000430F0000630F0000850F0000FFFFFFFF4C
:10006000C90A0000FFFFFFFF1D010000FFFFFFFFA7
:10007000E1120000FFFFFFFFFFFFFFFF1D01000077
:100080001D010000590D00001D0100001D010000B0
:100090001D0100001D0100001D0100001D010000E8
:1000A000FFFFFFFF1D0100001D0100001C488047ED
:1000B0001C4800471C480169002908D141690029F2
:1000C00005D18169002902D1C169002909D01748E9
:1000D000C1680901090D00290ED005290CD0062997
:1000E0000AD0BFF34F8F12481249016012491148DC
:1000F000C860BFF34F8FFEE70D4801680D48884286
:1001000000D070470D480E49016009480D49016053
:100110007047FEE7FEE7FEE7FEE7FEE7FEE70000CA
:10012000D118000049010000000308408001084088
:10013000000000200400FA0500ED00E00081084006
:1001400001000000000000000348854600F070FB3D
:100150000048004701220000C002002030B50B46D5
:10016000014600202022012409E00D46D5409D4291
:1001700005D31D469540491B254695404019154617
:10018000521E002DF1DC30BD70B50024254600283C
:1001900001DA01244042002901DA01254942FFF732
:1001A000DDFFAC4200D04042002C00D0494270BD7F
:1001B000024670B54A40D30FDB0740002DD04A00FD
:1001C0002AD0010E140E000212020919400A520A26
:1001D0008418E50104465443000A120A2E045043D1
:1001E000A4194219200CC543AA18120C0125AD030D
:1001F000521C521912047F39240400D0521C10439F
:1002000001D44000491EC2B20C06C0092018401C8F
:100210004008802A02D003E0002070BD4008400062
:10022000002900DA0020184370BD70B502464A402C
:10023000D50F40004A00ED0740085208002814D0AE
:10024000002A12D0C40DD30D41020120C005520274
:10025000490A520AE41A091812187D34914201D34E
:10026000641C00E04900002C01DA002070BD00236E
:10027000914201D3891A0343400849000028F7D16D
:1002800000290AD0914202D10121C90705E091421B
:1002900001D2012101E00121C943E005C018401944
:1002A00000F025FA70BD0000F0B50746084658403A
:1002B00087B0C00F049048000E4659004008490816
:1002C000BC1A884105D2384631461E4617460B46B1
:1002D00002465800400810434CD0300D03904005B2
:1002E0005900400D490D0590401A0290402872DADD
:1002F00018030121000B090508430190049800929E
:10030000002805D0019952420020884100920190B6
:10031000029840210A1A0199009800F0C5F9054693
:100320000C466B4607CB00F0CFF9C0197141039A18
:100330000E0D0023D71756401A467A40164344D074
:10034000049A002A2DD0029A012A039A15DC12057C
:10035000C01A914101263605001C7141D20F059E3D
:10036000D2070093019202962A46234600F00DFA26
:1003700007B0F0BD38463146FAE71605224A0F4667
:10038000B218C01AB74101210905001C4F410018DD
:100390007F41114618187941E20F10436D196441ED
:1003A00013E0E2076D0815436408C2071443039A7B
:1003B00001261205C01A91413605001C7141CE0775
:1003C000400830434908C01851412A46234600F0EE
:1003D000CFF9CDE7FFE7049801224000C117121AB8
:1003E00000238B4104983146C417381AA141EEE727
:1003F00030B40124E407634030BC55E730B4012435
:10040000E407614030BC4FE70000E0FFF0B51FB4E7
:1004100088B00B990998002448400999C00F4900F9
:1004200049080991C0070B990090490049080B91B0
:1004300009990898A64608431CD00B990A980843C6
:1004400018D0099801244000420D4800410D099838
:1004500024050003000B204309900B980003000BB8
:1004600020430B9050181C4940180022019014465C
:10047000104605E0002001460DB0F0BD032801DA6A
:10048000034600E003239C46C11A0AAE0AE05F005F
:1004900008ADED5B4F00F75B7D430027AA187C4158
:1004A000491C5B1E6145F2DD410004AB5A52210438
:1004B000120C0A43240C401C0828DFDB0198029030
:1004C0000099704601910090059B049A079906983F
:1004D00000F05BF9D0E700000DFCFFFFF0B50C4623
:1004E0005C4085B0E40FE40703944C0000266408E8
:1004F00059009446490802460296224321D062469A
:100500000A431ED06200570D4A000E032303550D07
:10051000012402462C492405781B1B0B360B40187E
:1005200023432643614600901C46501AB44103D32E
:100530000098401C009002E0921800985B4100284F
:1005400003DA0020014605B0F0BD002001210905B5
:100550000746864611E064461D46141BB54106D386
:100560006546521BB341744607430C43A646CD076C
:1005700040084908284392185B4105460D43EAD1DB
:100580001046184313D06046194650407140084346
:1005900006D06046101AB34106D20122002306E0BD
:1005A00000220123DB0702E00122D243531000980E
:1005B00074460105381C6141029C039D0019694184
:1005C00000F0D6F8BFE70000FD03000010B50022E0
:1005D0009623114600F093F810BD00000EB50549B2
:1005E0000291002100910A460B46019100F0CDF8DE
:1005F00003B000BD33040000410040020122400A64
:10060000D205090E80187F2901DA0020704796294B
:1006100003DC9622511AC8407047963988407047CB
:10062000C20FD207400040080BD0C10D0723DB01E9
:10063000C91840020905400A1143C2084007114386
:100640007047002001467047CB0FDB07490010B50B
:10065000490802460A4307D00A0D07240903E401AA
:10066000090B121B002A01DC002010BDC900440F39
:100670000C43C100E018D205801800F038F810BD16
:100680000122D207002800DB101A002900DB511AD2
:10069000814270470122D207002800DB101A00298E
:1006A00000DB511A8842704710B5202A04DB01464E
:1006B000203A9140002010BD914020239C1A03460F
:1006C000E3401943904010BD10B5202A06DBCB173C
:1006D0000846203A1041C1170B4306E00B46134170
:1006E000D0402024A21A91400843194610BD002989
:1006F00004DA401C490001D140084000704770B442
:100700000024050C05D11024000402D1002921D0B9
:100710001124050E01D100020834050F01D100019A
:10072000241D850F01D18000A41C002801DB40009E
:10073000641C002908D020252E1B0D46F540A14041
:1007400000D001212943084301061B1B000ADB1DC1
:1007500002D5002070BC7047DB05181880180029EE
:10076000F8DA401C4900F5D170BC400840007047E1
:1007700010B5002B08DA0024401C614192185B413F
:100780001A4301D14008400010BDF0B51FB482B03B
:1007900005460C0003D0084601F080F902E001F0A4
:1007A0007DF920300246009021462846FFF77CFF65
:1007B000049B059A04460F4618431143084314D07E
:1007C000184610431BD0009840210A1A1846059974
:1007D00000F040F805460E46009A05990498FFF788
:1007E00063FF084305D0012004E02046394607B0E6
:1007F000F0BD0020C11705430E432C433743009939
:100800000E986305401A7905E40A00220C43FD0A9C
:100810000A3002D500200146E9E7010510196941B7
:100820000C9C0D9D00196941FFF7A2FFDFE7000056
:10083000064C0125064E05E0E36807CC2B430C3C33
:1008400098471034B442F7D3FFF782FC482C0000DD
:10085000682C000010B5202A04DB0846203AD0405E
:10086000002110BD0B46D340D0402024A21A914055
:100870000843194610BD8C2211507047002904D03E
:10088000026880231A43026003E0026880239A43CF
:10089000026070473EB5044600200090019002902F
:1008A0000121890301988843401801908902029828
:1008B0008843401802900123684607C800F0EEFA0A
:1008C000E007C00F002804D002228021012000F0A0
:1008D000EBF902202040002804D00222D10101209F
:1008E00000F0E2F904202040002804D00222012177
:1008F000002000F0D9F908202040002804D002226E
:100900001146002000F0D0F910202040002804D02B
:1009100002220421002000F0C7F9202020400028F6
:1009200004D002220821002000F0BEF9402020401F
:10093000002804D002221021002000F0B5F9802008
:100940002040002804D002222021002000F0ACF931
:10095000FF2001302040002804D002224021002046
:1009600000F0A2F9012040022040002804D0022219
:100970008021002000F098F901208002204000280A
:1009800004D002221021104600F08EF90120C0028E
:100990002040002804D002222021104600F084F9D3
:1009A0000721102000F09AFA0023032219460C4870
:1009B00000F09DF800F022F82421094800F0A7F883
:1009C00001220421064800F083F80820012181401B
:1009D000044A116000BF01210148FFF74FFF3EBDEF
:1009E0000000014000E100E0024684239B580B40D8
:1009F000002B01D0012000E0002070470848094981
:100A0000486000210748816000680749084005499F
:100A100008600846006805490843024908607047B5
:100A20000C0D0A0000000140FFF8F8FF0002FFFF74
:100A300010B504211A48FFF7D7FF00282FD0042152
:100A40001748FFF718FF1648006B0005000D154901
:100A500008801348406B0005000D48801048806BEB
:100A60000005000D88800E48C06B0005000DC88091
:100A70000B48006C0005000D08810948406C00051A
:100A8000000D48810648806C0005000D88810448EF
:100A9000C06C0005000DC88101200349087010BD1D
:100AA00000000140600000200800002010B5002078
:100AB000034908700121034800F02BF810BD000025
:100AC000080000200000014010B5FFF7B1FF10BD85
:100AD00010B5002A05D080231B580B4380242350D7
:100AE00004E080231B588B438024235010BD70B535
:100AF000032900D100BF5C1E2404551E2D022C4387
:100B00000C430568802635402C43046070BD0162AB
:100B10007047002904D0426F01231A43426703E063
:100B2000426F52085200426770470000F0B589B02A
:100B300004460D460D222021022000F0B5F80021C8
:100B40006846C18246480068464908602188684670
:100B500081820021017600200790FF210131684643
:100B6000018405A9284600F079FFFF2101312846BC
:100B700000F0F7FE07216846C180012101720021C3
:100B80004172012181720021C172017301214173FF
:100B9000A0780840002812D0002069460871888A91
:100BA000FFF714FD07466168FFF702FB0646FFF7F3
:100BB00023FD6946C88101A9284600F0EBFEA07814
:100BC00002210840002812D0012069460871888A55
:100BD000FFF7FCFC0746A168FFF7EAFA0646FFF7B5
:100BE0000BFD6946C88101A9284600F0D3FEA07814
:100BF00004210840002812D0022069460871888A22
:100C0000FFF7E4FC0746E168FFF7D2FA0646FFF774
:100C1000F3FC6946C88101A9284600F0BBFEA07814
:100C200008210840002812D0032069460871888AEC
:100C3000FFF7CCFC07462169FFF7BAFA0646FFF733
:100C4000DBFC6946C88101A9284600F0A3FEA07814
:100C5000002803D00121284600F088FE09B0F0BD2D
:100C60005C0000205000002030B50A46002300211F
:100C7000072803DD01230446083CE0B29C00094D2F
:100C80006419216885000F24AC400D46A543294610
:100C900085001446AC4021439C00024D641921603C
:100CA00030BD000000200240F7B50B46009DED006E
:100CB000154EAA19002000240027002120E000245E
:100CC0000027FF258D401D40002D17D000200FE08C
:100CD0001D46C54001268E403540002D07D08600B8
:100CE0000F25B5402C438600029DB5402F43401C84
:100CF0000828EDD31568A5433D431560121D083142
:100D00000829DCDDFEBD00002020024010B51120C6
:100D1000012181400D4A116000BF7D21C9000C48AE
:100D20000068FFF71BFA044621460A4800F04BF81A
:100D30000021084800F049F80121064800F037F882
:100D40000121044800F027F810BD000000E100E098
:100D50005C0000200060074010B5084800F014F85F
:100D600007480088401C0649088008460088054955
:100D7000884202DB00200249088010BD0060074065
:100D800034000020102700004168490849004160F4
:100D9000BFF34F8F7047002904D0026804231A4321
:100DA000026003E0026804239A430260704700294E
:100DB00004D0026801231A43026003E0026852086B
:100DC000520002607047C160704781607047000048
:100DD0000146044880680840002801D0012070477F
:100DE0000020FCE70080084070B504461C48406BBA
:100DF0004607760F022E06D0032E07D0062E08D007
:100E0000072E0ED109E0174820600DE0154820603C
:100E10000AE00120C003206006E07D20000220607F
:100E200002E00020206000BF00BF0D48056A052DCC
:100E300002D32068400901E02068E840606008486B
:100E4000806A072109040840050C072D04D10321FD
:100E50006068FFF783F901E06068E840A06070BD5A
:100E600000800840002D3101FEB50446601180006D
:100E70000949461800252E2C00D10225E406E40E6F
:100E80000321A14030680840E04045196846FFF75B
:100E9000ABFF0198E840FEBD388008403FB50E4CDE
:100EA000606AE16A226B0446009DAC4320460C4612
:100EB000019DAC4321461446029DAC432246002BC3
:100EC00005D0009C2043019C2143029C2243024CFC
:100ED0006062E16222633FBD00800840054A926A79
:100EE000072383409A430B4683401A43014B9A627F
:100EF000704700000080084010B5037B002B0AD12A
:100F0000002A02D00123036001E000230360416056
:100F10000123037314E0002A02D003685B1E036000
:100F200003881B045B1844681B1B8360437B002BF6
:100F300002D00123837301E0012343730023037371
:100F400010BD10B500F00EFF002000F099F8002849
:100F500003D0002000F08AF802E0012000F086F8BB
:100F600010BD10B500F0FEFE022000F089F8002848
:100F700003D0022000F07AF802E0032000F076F8B7
:100F800010BD000010B500F0EDFE042000F078F870
:100F9000002803D0042000F069F864E0052000F088
:100FA0006FF8002803D0052000F060F85BE0062011
:100FB00000F066F8002803D0062000F057F852E051
:100FC000072000F05DF8002803D0072000F04EF85D
:100FD00049E0082000F054F8002803D0082000F071
:100FE00045F840E0092000F04BF8002803D0092024
:100FF00000F03CF837E00A2000F042F8002806D064
:101000000A2000F033F80120174908702BE00B206C
:1010100000F036F8002803D00B2000F027F822E07B
:101020000C2000F02DF8002803D00C2000F01EF852
:1010300019E00D2000F024F8002803D00D2000F066
:1010400015F810E00E2000F01BF8002803D00E2049
:1010500000F00CF807E00F2000F012F8002802D092
:101060000F2000F003F810BD1000002001460122FF
:101070008A401046014A50609060704740400240EC
:1010800001460548406801228A401040002801D0EE
:10109000012070470020FCE7404002400279D2075F
:1010A000037A1B071A43C3881A4311460268920049
:1010B000014BD2181160704700400240012907D14E
:1010C000074A1268012383401A43054B1A6006E061
:1010D000034A1268012383409A43014B1A60704708
:1010E0004040024000B587B000200190029003907C
:1010F000002168468174FF210131018200200690A1
:1011000000216846017508200190684601724181FE
:101110000221017301AA04A9154800F051F8012128
:10112000C90268460182002006900B20019001AAA6
:1011300004A90F4800F044F80121890268460182A1
:10114000002006900A20019001AA04A9084800F096
:1011500037F80121490268460182002006900920E3
:10116000019001AA04A9024800F02AF807B000BDC6
:1011700000000B40002A03D003680B43036002E029
:1011800003688B4303607047F0B5174600240025C1
:1011900000220CE0CE07F60F002E06D053003E468C
:1011A0009E40344303269E4035434910521C102A6A
:1011B000F0D34669AE434661466926434661F0BDB9
:1011C000FEB506460D4614460020009001900290A0
:1011D0002946304600F030F80121C90301988843C0
:1011E000401801900123684607C8FFF757FE297A87
:1011F0002078FFF739FD2046FFF750FF01212068D6
:10120000FFF75CFF2068002806D0012805D00228DF
:1012100007D003280AD105E000BF042000F00AFA35
:1012200008E000BF052000F005FA03E0062000F00A
:1012300001FA00BF00BFFEBD70B505460C4621880F
:101240000122A068FFF730FD22792188284600F0AE
:101250001EF8A27821882846FFF78CFFA078002886
:1012600005D121880122284600F007F804E0E27841
:1012700021882846FFF788FF70BD002A03D0436805
:101280000B43436002E043688B4343607047002A8E
:1012900006D183680B438360C3688B43C3600EE051
:1012A000012A06D1C3680B43C36083688B43836004
:1012B00005E083688B438360C3688B43C3607047DA
:1012C0000246D3690B40002B01D0012000E0002032
:1012D0007047002A01D0416200E08162704700003F
:1012E000F8B500262448C46B2348403000680090BD
:1012F000FF20013020402049C96BFF2201321140FC
:10130000884205D01C48C46B1B48403000680090E0
:10131000E0431949C8638815204000280AD00126F7
:10132000164800681649884204D014480068401CDA
:10133000124908600220204000281BD001210E48DD
:10134000403800F01FFB0546002E04D0009885426F
:1013500001D9012000E000200746A9B23A4607481B
:10136000FFF7CAFD0548027B01210348403800F021
:10137000EBFA00BFF8BD000040E0064094000020FA
:10138000FFFF000000BF024800680028FBD0704744
:1013900000000020002904D0026801231A430260E3
:1013A00003E0026852085200026070470246D068AB
:1013B000884201D1012070470020FCE7C1607047DE
:1013C000002904D0026808231A43026003E002687F
:1013D00008239A43026070470168022211430160AA
:1013E00070470246D0680840002801D001207047AD
:1013F0000020FCE7FEB504460D4600200190009059
:1014000000BF00BF01212046FFF7DAFF20688521D9
:1014100088432978084369780843A97808432060FD
:10142000A888A0602748844204D10020FFF71CFD53
:10143000019006E02448844203D10220FFF714FD06
:1014400001902068032189030840002806D001216B
:101450008903401A05D0401A09D105E00620009002
:1014600005E00820009002E00920009000BF00BFC6
:101470001423AA685A431146019AD300D018FEF7E4
:101480006DFE0099401A297B461A1423AA685A4314
:1014900011460B23019A5A431046FEF75FFE00994E
:1014A000401A297B471A002E01DA002000E030465E
:1014B0000646002F01DA002000E038460746266184
:1014C0006761FEBD008004400090044001468869C9
:1014D000C0B270478161704710B500BF0368022435
:1014E0002340002BFAD1002A03D063020B43C361CF
:1014F00000E0C16110BD000010B500F0AFF800BF02
:101500002020FFF765FC0028FAD0002000F0CEF87C
:101510000121022000F058F9002000F06BF9A02012
:1015200000F062F9012000F0AFF8012001218140B4
:10153000024A116000BF00F0C5F810BD00E100E0F4
:10154000F8B500F059FF00F037FE2E48007801286A
:1015500003D100F083FFFFF7A9FA2B480078002899
:101560004BD128480078022841D02648007811281D
:1015700034D1002125480068FFF782F802D12448C1
:101580002249086021480068FFF74AF80446214ACA
:10159000214BFEF789FE0646FFF756F81B49086007
:1015A0007F21C90519480068FFF774F802D218486E
:1015B0001649086019490888FFF708F806461348D5
:1015C00001683046FEF7F4FD0546FFF715F884B2D2
:1015D00022460221124801F065F908E00948007826
:1015E000212804D007480078312800D000BF0648E1
:1015F0000078002801D100F0A1FE00200149087008
:10160000F8BD000036000020160000202000002059
:10161000CDCCCC3D9A9999999999A93F8000002009
:1016200000100740704710B50021084600F00CF884
:1016300010BD0000C206D20E01219140014A116086
:101640007047000000E100E0024A0A400243024BFA
:101650009A60704780FFFF1F00ED00E001200849FD
:10166000486000BF064840680121090388430028FC
:10167000F8D100BF024800680028FBD17047000085
:1016800000A1064070470000002806D0064989687E
:1016900010221143044A916005E003498968102231
:1016A0009143014A9160704700A00640044989684F
:1016B0000222914342001143014A916070470000A9
:1016C00000A00640002806D006498968012211437F
:1016D000044A916005E00349896849084900014AC4
:1016E0009160704700A006400148C068C0B27047D2
:1016F00000A0064010B5FFF7F7FF04460220204087
:1017000000284DD0A02000F06FF826480088401C2B
:101710002449088024480088401C23490880234825
:101720000078401C214908700A2120480078FEF703
:101730002BFD002902D101201D49087014211B48EE
:101740000078FEF721FD002902D101201949087017
:10175000642116480078FEF717FD002902D1012008
:1017600015490870C82111480078FEF70DFD0029C1
:1017700005D101201149087000200C4908700A4861
:1017800000881921890188420ADB00BFBFF34F8F0F
:101790000B480C49C860BFF34F8F00BF00BFFEE786
:1017A00010BD00002400002026000020280000209A
:1017B000290000202A0000202B0000202C000020FF
:1017C0000400FA0500ED00E0002905D0054A126981
:1017D0000243044B1A6104E0024A12698243014B3E
:1017E0001A61704700A00640014948607047000038
:1017F00000A0064003498968034A11400143014A99
:101800009160704700A00640FFF0000070470000A4
:10181000042806D10649096904221143044A1161CA
:1018200005E00349096904229143014A11617047A7
:1018300000E000E0002803D10021094A91610EE098
:10184000012806D10649096901221143044A1161A0
:1018500005E00349096949084900014A11617047D7
:1018600000E000E0002806D0064909690222114381
:10187000044A116105E00349096902229143014AC2
:101880001161704700E000E00149486170470000C5
:1018900000E000E010B50420C043FFF7B9FF07499E
:1018A00009680809FFF7F0FF0120FFF7DBFF0020C0
:1018B000FFF7C0FF0120FFF7BDFF10BD5C00002057
:1018C00002480068401C0149086070470C00002075
:1018D00010201B49C8601B48006B40210843194970
:1018E0000863084640680121C90208431549486059
:1018F00000BF144880680007C00F0028F9D01148C5
:101900004068C008C000C01C0E49486000BF0D48B8
:10191000406B4007400F0328F9D1012009490862B4
:101920000846006B4021884306490863002008628E
:10193000084640680915884302494860704700001E
:10194000008108400080084070B5446D4E000125BC
:10195000B540AC4323464D001446AC401C4344659F
:1019600070BDCA43C267BFF34F8F7047002904D0D0
:10197000026901231A43026103E00269520852001E
:101980000261704710B502468C0010469030231853
:10199000186810BDFCB50D78AD0006464036AF198D
:1019A0000D78AD005036AD1901950D78AD001036AB
:1019B000AD1900950D786D062A0E274DA84203D16A
:1019C00003259540EC4302E001259540EC43224D70
:1019D000A84200D100BF056D25400565436D234039
:1019E0001D4DA84206D18D79CE79760035439540BC
:1019F0002B4302E08D7995402B434365164DA84259
:101A000009D1C56E25402B460D7A4E7A76003543B6
:101A100095402B43C3663D68FF260836B5433D60BD
:101A20003D684E8835433D604E89019D2E608E890C
:101A3000009D2E60084DA84208D10D794E797600A0
:101A400035439540066D3543056504E0056D0E7917
:101A5000964035430565FCBD00C002400B888822D6
:101A600013504B8884221350026803231B049A43AB
:101A70000260026801231B069A43026002688B68B9
:101A80001A430260044A904202D10B798C2213500F
:101A90008A8982677047000000C002402021020C42
:101AA00001D010211046020A01D01046083902095F
:101AB00001D01046091F820801D01046891E420835
:101AC00001D0881E7047081A704702E008C8121F2C
:101AD00008C1002AFAD170477047002001E001C117
:101AE000121F002AFBD17047F8B500200090134860
:101AF000007800281FD01248808800900098FEF7D8
:101B00006DFD044622460B4600200E49FEF7E6FC1A
:101B10000646FEF799FD0C49086000210A48006856
:101B2000FEF7AEFD01D10020F8BD0020034908708A
:101B300005480068F8E70020F6E7000008000020EC
:101B4000600000200000B84018000020F0B597B0F9
:101B5000044600211691159114911391129111913F
:101B600010910F91002700200E900D900C900B907B
:101B70000A900991089000250026744800780028F2
:101B80007DD000207149087016A9082000F0C8FB1C
:101B900010A8017E04200143169116A9082001F027
:101BA0000FF816A9082000F0BBFB15A9002000F0D3
:101BB000B7FB14A9012000F0B3FB13A9022000F029
:101BC000AFFB12A9032000F0ABFB11A9072000F026
:101BD000A7FB10A9082000F0A3FB0FA9092000F023
:101BE0009FFB09A9112000F09BFB16A9062000F01D
:101BF00097FB10A8007E050416A9052000F090FBB5
:101C000010A8007E0002054316A9042000F088FBFE
:101C100010A8007E054316A9082000F081FB10A83B
:101C2000007E06218843169016A9082000F0C8FF00
:101C300016A9082000F074FBE079401CC0B2E071E6
:101C4000032875DDA0684019A060E07906286FD1EF
:101C50000321A068FEF782FA05460120C00528404E
:101C6000002811D001210906481BFEF7AFFC3849B6
:101C70000790FEF7DAFA06463649304600E062E0A1
:101C8000FEF796FA064607E02846FEF79FFC304925
:101C90000790FEF7CAFA06466079012804D00228A8
:101CA00005D004283DD11FE02B48066039E02A48C2
:101CB0000068FEF7B5FC02460B460191009000203B
:101CC0002649FEF70BFC059104903046FEF7A8FC70
:101CD00003910290059B049AFEF798FB07910690EA
:101CE000FEF7B2FC06461CE01B480068FEF798FCB5
:101CF00002460B460191009000201849FEF7EEFBCA
:101D0000059104903046FEF78BFC03910290059BF1
:101D1000049AFEF77BFB07910690FEF795FC0646BA
:101D200000BF00BF6079A07100F01CFD0020607151
:101D30000B4801780078401C094A1070022902DB28
:101D400000201146087017B0F0BD00001000002000
:101D5000D0DD064B000080BF540000200000F43F9F
:101D60005800002010B50120FFF7ACFC00F0E6FAA7
:101D700010BD7047704770477047000010B5FFF7FF
:101D8000B3FE00F0DBFE27480078012804D10020D4
:101D900024490870FFF7F0FF23480078012804D198
:101DA000002021490870FFF7E4FF2048007801284F
:101DB00004D100201D490870FFF7DDFF1C480078A2
:101DC00001282DD100201A4908701A480088401CAB
:101DD000184908800888C10F091849104900411A9C
:101DE0001CD114480088032811DA08201249087011
:101DF00001204870062008710820C87040208870B3
:101E00000020887104210C4800F0DAFC06E0002074
:101E1000094988710421084800F0A2FAFFF7AAFFD7
:101E200010BD0000290000202A0000202B00002007
:101E30002C00002012000020B40000200748007889
:101E4000102188430549087000200549088005488D
:101E50000078800880000349087070473700002030
:101E600046000020480000200748007820218843D1
:101E70000549087000200549088005480078800859
:101E8000800003490870704737000020420000209E
:101E90004400002010B5A6480078C007C00F0028F5
:101EA00008D0FF210131A348FFF70AFA002801D02A
:101EB00000F056F99E48007820210840002807D0FD
:101EC00049019C48FFF7FCF9002801D0FFF7CCFF3F
:101ED0009748007810210840002807D0490195480C
:101EE000FFF7EEF9002801D0FFF7A8FF904800782F
:101EF00004210840002816D049028E48FFF7E0F977
:101F0000002810D08C480078C007C00F002808D0E7
:101F10008948007802210840002802D131208749F1
:101F2000087000F033F9FF2101318248FFF7C8F94A
:101F300000283CD17E480078C007C00F002834D06C
:101F40007F480078C007C00F002811D17D48008865
:101F50007D490988401880B2022828DD7848007839
:101F600001210843764908700120744908701EE079
:101F70007348007802210840002818D17148008871
:101F800071490988401880B2FF21913188420EDDE5
:101F900002206A4908706A480078022108436849AB
:101FA000087000206749088001E000F043FA012131
:101FB00089026048FFF784F900283AD15C4800782C
:101FC00020210840002832D060480078C007C00FA8
:101FD000002811D15E4800885B490988401880B20A
:101FE000022826DD59480078012108435749087026
:101FF0001120524908701CE0544800780221084022
:10200000002816D1524800884F490988401880B2EC
:1020100064280EDD1220494908704C4800780221DE
:1020200008434A49087000204949088001E000F04F
:10203000E9F9012149023F48FFF742F900283AD166
:102040003B48007810210840002832D041480078F1
:10205000C007C00F002811D13F4800883A490988BD
:10206000401880B2022826DD3A4800780121084352
:10207000384908702120314908701CE03548007843
:1020800002210840002816D1334800882E490988CB
:10209000401880B264280EDD2220284908702D489F
:1020A0000078022108432B49087000202A49088043
:1020B00001E000F089F90121C9021E48FFF700F98B
:1020C000002834D11A4800780421084000282CD078
:1020D00019480078C007C00F00280ED11F4800889B
:1020E00019490988401880B2022820DD124800787A
:1020F000012108431049087019E00F4800780221B7
:102100000840002813D1154800880F490988401855
:1021100080B2C8280BDD32200849087006480078D4
:10212000022108430449087001E000F09DF910BD48
:102130003700002000000B404C000020360000203B
:102140003E00002040000020240000204400002029
:102150004200002048000020460000204A000020E5
:1021600007480078400840000549087000200549EC
:10217000088005480078800880000349087070478F
:1021800037000020400000203E0000200748007873
:102190000421884305490870002005490880054846
:1021A00000788008800003490870704737000020DD
:1021B0004A0000204C00002000B50220044948706D
:1021C0000448486004488860084600F007F800BDED
:1021D000A4000020DC2B0000DE2B00000021064ABA
:1021E00011800121C1700549496809788170002179
:1021F0000170C1607047000026000020A40000208C
:102200000024FFF710FA601E1A494862C86208638A
:10221000FFF740FB00F03CF8FFF76EF9FEF776FDA4
:10222000FEF760FF0124A4022046FEF733FB00F016
:1022300041F91148114908800220887010490F485F
:10224000FEF774FC15E00F48FFF780FCFFF722FE55
:102250000D480078002801D0FFF772F90B4800887C
:10226000002806D009480088401E08490880FFF76A
:1022700085FDE8E7008008400F270000800000206F
:1022800000100740B4000020360000202600002087
:102290000EB500216846817002210171C9020180DA
:1022A0000120029069461B48FEF7C6FF04216846DC
:1022B00001800220029069461748FEF7BDFF082101
:1022C000684601800220029069461348FEF7B4FF79
:1022D0000121684681700821018000200290694632
:1022E0000E48FEF7A9FF012208210C48FEF7F1FF76
:1022F0000121684681700421018000200290694616
:102300000648FEF799FF012204210448FEF7E1FF89
:102310000EBD000000200B4000400B4000000B40B1
:1023200038B504460D46012023462A46D0210090A8
:10233000014800F02FFB38BD0090044005480078AC
:10234000002803D004200449088002E00348024921
:10235000088070471600002014000020E02E0000C6
:1023600038B504460D46002100911648457169466E
:102370000720FFF7D5FF6846017880208143009150
:10238000684601788020014300916946072000F0EB
:1023900017FC69460720FFF7C3FF69460720FFF7D0
:1023A000BFFF68460178802081430091684600782D
:1023B00000906946072000F003FC0020A060E07157
:1023C00038BD0000B400002000B5FFF737FD074816
:1023D000008801210904081A054908800548007889
:1023E000102108430349087000BD000024000020AC
:1023F000460000203700002000B50821002000F032
:102400004BF800BD00B5FFF72FFD074800880121FC
:102410000904081A05490880054800782021084366
:102420000349087000BD0000240000204200002085
:10243000370000200648008801210904081A0549D0
:102440000880054800780121084303490870704757
:1024500024000020400000203700002000B50421A7
:10246000002000F019F800BD00B5FFF78FFE074807
:10247000008801210904081A0549088005480078E8
:10248000042108430349087000BD00002400002017
:102490004A0000203700002010B58200044B9A58F3
:1024A000126A4A408300024CE3581A6210BD0000D1
:1024B000042C000008B5002100910E4800F0DCFA61
:1024C00069460A20FFF72CFF69460720FFF728FF1F
:1024D000002100916946072000F072FB0021009165
:1024E00069460720FFF71CFF0021009100F004F867
:1024F00008BD00000090044008B500210091694625
:102500001120FFF70DFF6846007801210843009075
:102510006946112000F054FB00BF0021009169467C
:102520001120FFF7FDFE68460078022108400028D0
:10253000F3D02021009169460B2000F041FB694651
:102540000B20FFF7EDFEC021009169460D2000F041
:1025500037FB69460D20FFF7E3FE69460020FFF7D1
:10256000DFFE684601788020014300916946002023
:1025700000F026FB0021009169460020FFF7D0FE05
:1025800000207649088000BF744800880528FBDBDE
:1025900069460120FFF7C4FE68460078C109C901F9
:1025A00000916846017800916946012000F008FB1F
:1025B0000021009169460120FFF7B2FE6946022022
:1025C000FFF7AEFE684601787E20814300916846A1
:1025D000017800916946022000F0F2FA0021009192
:1025E00069460220FFF79CFE69460920FFF798FE26
:1025F00068460078410949010091684601781F202A
:10260000014300916946092000F0DAFA00210091A7
:1026100069460920FFF784FE69460720FFF780FE20
:102620006846007841094901009168460178042014
:10263000014300916946072000F0C2FA0021009191
:1026400069460720FFF76CFE69460820FFF768FE21
:1026500068460178E0208143009168460178009146
:102660006946082000F0ACFA002100916946082074
:10267000FFF756FE69460320FFF752FE68460078D2
:10268000810989010091684601782E20014300915B
:102690006946032000F094FA002100916946032066
:1026A000FFF73EFE69460720FFF73AFE68460178CD
:1026B00060208143009168460178009169460720B7
:1026C00000F07EFA0021009169460720FFF728FEFE
:1026D00069460720FFF724FE684601788020814381
:1026E00000916846017880200143009169460720E7
:1026F00000F066FA0021009169460720FFF710FEFE
:1027000069460820FFF70CFE6846017806208143E1
:1027100000916946082000F053FA002100916946B3
:102720000820FFF7FDFD69460720FFF7F9FD684621
:1027300001788020814300916846007800906946C6
:10274000072000F03DFA01200549487100208871FA
:102750008860C8710846FFF7F9F908BD2600002017
:10276000B400002008B50021009169460720FFF75A
:10277000D7FD684601788020814300916846017842
:102780008020014300916946072000F019FA69464C
:102790000720FFF7C5FD69460820FFF7C1FD684621
:1027A00001780620814300916946082000F008FA6C
:1027B0000021009169460820FFF7B2FD08BD000026
:1027C00038B504460D46002000906079002865D198
:1027D0003348457169460720FFF7A2FD6846017836
:1027E0008020814300916846017880200143009158
:1027F0006946072000F0E4F969460720FFF790FDDD
:1028000069460820FFF78CFD684601780620814361
:1028100000916946082000F0D3F969460820FFF7C7
:102820007FFD69460120FFF77BFD68460078C109FE
:10283000C9010091A078E1780843217908436946ED
:102840000978084300906946012000F0B9F969460B
:102850000320FFF765FD6946087880098001009034
:1028600020786178084369460978084300906946F2
:10287000032000F0A5F969460720FFF751FD6846DF
:102880000178802081430091684600780090694675
:10289000072000F095F90020A060E07138BD00002D
:1028A000B4000020FEB504460E46154618490888B7
:1028B000FDF78CFE01902846FDF788FE00900199F7
:1028C000FDF7B3FC07468820005980B2A84202DA1F
:1028D0008820005985B2012E04D1902005510C4862
:1028E000476013E0022E04D1942005510848876008
:1028F0000CE0042E04D10648C7609820055105E07D
:10290000082E03D1024807619C200551FEBD00003E
:1029100080000020FEB504460E4615460949088889
:10292000FDF754FE31460090FDF742FC0746FDF7E7
:1029300063FE80B20246214601902846FFF7B2FFAF
:10294000FEBD00008000002070B505460E4600BFA9
:102950000121C9042846FEF744FD0028F8D118E0FB
:10296000002231462846FEF7B7FD10E0EC6804204F
:102970002040002800D070BD0120400220400028E7
:1029800005D0012149022846FEF718FD00E0EDE7D9
:1029900000BFE5E7FFB581B00D4616461F460A9C0D
:1029A00069100198FFF7D0FF00BF1D21490401986D
:1029B000FEF7FCFC0028F8D039460198FEF78AFDA6
:1029C0006910012292020198FEF786FD00BF1849A6
:1029D0000198FEF7EBFC0028F9D000BF1449C91C90
:1029E0000198FEF7E3FC0028F8D0012C03DD01215B
:1029F0000198FEF7CFFC14E000BF192109040198EB
:102A0000FEF7D4FC0028F8D00198FEF75FFD307087
:102A1000761C601E84B2012C03D100210198FEF7C0
:102A2000B9FC002CE8D10198FEF7D6FC05B0F0BD4A
:102A300001001800FFB583B017461D460C9E17E035
:102A40006807400F0821081A02900298864201DDAB
:102A5000029800E0304604462B463A46009404991A
:102A6000039800F035F83F192819C5B2301B86B21B
:102A7000002EE5D107B0F0BD1FB504460020009040
:102A80000190029003901048844209D1072201214D
:102A90000020FEF709F9072202210020FEF704F9C1
:102AA0000021684601704170817081800748029062
:102AB0006846017369462046FEF79CFC01212046CA
:102AC000FEF77EFC1FBD000000900440A0BB0D007F
:102AD000FFB581B00D4614461E460A9F6910019845
:102AE000FFF732FF00BF1D2149040198FEF75EFC8D
:102AF0000028F8D031460198FEF7ECFC0CE000BF4E
:102B00001D2149040198FEF751FC0028F8D02178D6
:102B10000198FEF7DFFC641C3846791E8FB200284E
:102B2000EDD100BF1D2149040198FEF73FFC0028AC
:102B3000F8D00198FEF750FC05B0F0BD10B51D4867
:102B4000C078012834D11B488078002830D019483B
:102B50008078401EC0B217498870002828D10846E6
:102B60000078401CC0B208704978884208DB002019
:102B70001049C870104A00210220FFF7CBFE17E071
:102B80000C4840680B490978405C0A49887008463F
:102B900080680978405C012805D1074A074902206E
:102BA000FFF7B8FE04E0044A00210220FFF7B2FE5E
:102BB00010BD0000A4000020001007409A99993E23
:102BC00038B504460D46012023462A46D021009000
:102BD0000148FFF72FFF38BD00900440010A0001B3
:102BE000010A640A640A640A6464000100010001C5
:102BF00000010001016400010A0A0A0A0A0A000130
:102C00000001000100000B4000200B4000400B4081
:102C100000000000000000000000000001010100B1
:102C200040008000000101010101020200100400C7
:102C300008000101010C0203001004400000100014
:102C40000600000020000600682C000000000020A4
:102C500060000000CA1A0000C82C000060000020BC
:102C600060020000DA1A000000000000010000000D
:102C70000000000004000000000000000000000050
:102C80000000000000000000000000000000000044
:102C90000000000000000000000000000000000034
:102CA0000000000000000000000000000000000024
:102CB00000000000000000000000000045CA723F54
:082CC00000000000002D3101AD
:04000005000000AD4A
:00000001FF
